:102000000080002079650000D56200006165000055
:1020100000000000000000000000000000000000C0
:1020200000000000000000000000000061650000EA
:10203000000000000000000061650000CD650000A8
:102040006165000061650000CD430000616500002E
:102050009962000061650000AD290000656500001F
:1020600061650000E94500006165000061650000F0
:102070008543000061650000F945000061650000CE
:102080006165000061650000353400006165000095
:1020900000000000616500006165000061650000EE
:1020A0006165000061650000616500006165000018
:1020B0000000000010B5064C2378002B07D1054B1B
:1020C000002B02D0044800E000BF0123237010BDA4
:1020D00090020020000000004CF40000044B10B5FA
:1020E000002B03D00349044800E000BF10BDC046E8
:1020F00000000000940200204CF400007047000033
:102100001FB50121042004F0CFFC0021042004F0BD
:10211000FBFC0121042004F0F7FC0A2004F09AFAE9
:102120000021042004F0F0FC0A2004F093FA0121BD
:10213000052004F0B9FC0121052004F0E5FC642031
:1021400004F088FA124C1349200001F08FFD2000A2
:10215000002101F0D3FD0021200001F0D1FD0E4C43
:10216000200001F03DFC20000C4A0D4901F056FA18
:1021700020000122142101F0A2FB10226846094927
:1021800009F094FA6946200001F0ACFC1FBDC0467E
:102190001C030020A0050020B0020020CDCC4C3D47
:1021A00000C06444F4E50000F0B5061C89B0081CCA
:1021B0000F1C09F009F9324A324B04000D0007F0F8
:1021C000EBFA0022304B05F0E7F8304A304B08F0CC
:1021D00053FA04F019FE00900191391C301C06F0EE
:1021E00011FC04F0B1FF2B4A2B4B071C29002000E7
:1021F00008F0AEFC04F008FE002202900391274B89
:102200002000290005F0C8F8254A06900791254BC3
:102210002000290008F030FA04F0F6FD0490059142
:10222000301C09F0D1F8009A019B08F025FA04004F
:10223000381C0D0009F0C8F802000B00200029002E
:1022400007F0AAFA029A039B08F082FC164A0400DF
:102250000D0006980799154B08F00EFA049A059B95
:1022600008F00AFA02000B002000290007F094FA97
:102270000F4A104B08F06CFC09F0EEF809B0F0BD05
:102280002F3196E997A020400000E03FAF415F7AF0
:10229000FB73C33FEB55647440D2FA3F0000F83F34
:1022A000750305DEC9A7973F01B8401FB80C703F02
:1022B0003CA583F57FBE1240F0B501210D20BBB0D7
:1022C00004F022FC0A250121052004F01DFC6420F5
:1022D00004F0C0F97D4822AA19A901F039FD041EB5
:1022E00009D10100052004F00FFC013D322004F06B
:1022F000B1F9002DE7D1279D1E99281CFFF754FF47
:1023000004902D2004F058FB07F00AFA09F05CF85D
:102310006F4A704B08F0B0F909F09EF86E4F6F49A4
:10232000386007A804F043F86D49002C4FD113A87A
:1023300004F03DF813A916A804F05CF8694916A842
:1023400004F0CBF80400022239682BA804F06DF8E1
:102350002BA9200004F0B4F8010007A804F03AF813
:102360002BA803F0DCFF16A803F0D9FF13A8002464
:1023700003F0D5FF210038222CA82B9409F0B2F9E4
:1023800023002BA93C2207A804F0BBF82BA80AF0D5
:10239000F1F8554DC2B22BA9280001F030FA2800FF
:1023A00000F028FD280001F06FF82100052004F05E
:1023B000ABFB21000D2004F0A7FBFA214B4889015B
:1023C00002F0F0F807A803F0AAFF3BB0F0BD0AA89E
:1023D00003F0EDFF0AA90DA804F00CF8444C0DA879
:1023E000210004F07AF80600281C08F0EDFF414AAD
:1023F000414B0290039108F03FF900223F4B07F058
:10240000CBF9012502000B00009510A804F027F875
:10241000300010A904F054F8210004F05EF8060022
:10242000049808F0D1FF364A364B08F025F9364AB1
:102430000490059102980399344B08F01DF90200AD
:102440000B000498059907F0A7F92A4A2A4B08F0CF
:1024500013F90022294B07F09FF900950B000200A9
:1024600013A803F0FCFF300013A904F029F82100A1
:1024700004F033F806002A001E9916A803F0D5FFD1
:1024800016A9300004F01CF8210004F026F804001E
:10249000022239682BA803F0C8FF2BA9200004F002
:1024A0000FF8010007A803F095FF2BA803F037FFF2
:1024B00016A803F034FF13A803F031FF10A803F0AF
:1024C0002EFF0DA803F02BFF0AA850E71C030020E5
:1024D000D942908312667A3FAC02002004E60000E5
:1024E0000400002005E60000B0020020D407002010
:1024F00094F10000CDCCCCCCCCCCFC3F00004040D3
:10250000666666666666E63F333333333333D33FFE
:1025100010B5040004F0E8F8200010BD70B50B4CB5
:10252000200001F073FB0A4D20002A00094904F045
:1025300063FC094C094B03220821200000F0E8FF4E
:102540002A002000064904F057FC70BD1C0300203F
:1025500000000020193C0000B00200207C05002093
:10256000FD20000010B500F06DFB0022024B800042
:10257000C35849331A7010BD8C030020F0B5040015
:1025800085B01E000AAB1B78103001930BAB1B7893
:10259000170002930CAB1B780D00039300F0D4F9E5
:1025A0002000243000F0D0F9220000234832A36339
:1025B000E363236463641370537063729D4205D1B7
:1025C0002721084B084A094808F0ECFF2000019B2E
:1025D00025606371029B2771E371039BA6712372CF
:1025E00005B0F0BD16E6000027E600007BE600001F
:1025F00030B5040085B002AD00680291039202F08C
:10260000FFF86B79227AE17920680093002302F0C9
:10261000B5FA2979029A206802F016F9206802F0CA
:10262000E5F805B030BD10B50400006802F0D1F83F
:102630000023637210BD000010B54B1C0BD0102995
:1026400009D0EFF3108472B6102905DD02238372DE
:10265000002C00D162B610BD0123827A1A43827227
:1026600018224A430449891816228A569340C268A0
:102670001343C360ECE7C04668EA000007B5837AFD
:1026800000910192002B07D09A070AD5EFF310832F
:102690005A425341C37272B60099019AFFF7A8FFDC
:1026A00007BDDB07F8D5C368014A9BB29360F3E727
:1026B00000180040837A002B05D09A0704D5C37A0E
:1026C000002B00D062B67047DB07FCD5C368024A16
:1026D0009BB2D360F7E7C0460018004010B5006811
:1026E00002F097F810BD70477047000010B5006801
:1026F00002F098F903000020834203DB0C304343CF
:10270000014A985810BDC046D4E6000010B50068D4
:1027100002F088F9002805DB0C2343430348C01866
:10272000406810BD01204042FBE7C046D4E60000EF
:1027300010B5006802F076F9002805DB0C2343434E
:102740000348C018806810BD01204042FBE7C04626
:10275000D4E60000F0B506001036050089B0300060
:1027600000F048F900286CD12F002437380000F021
:1027700041F9041E62D12800FFF7DAFFC1B2300030
:1027800000F018FA0221300000F038FA01222E4938
:10279000300000F00BFA300000F054FA2B4B8000B0
:1027A000C5502800FFF7B2FFC1B2380000F002FAAE
:1027B0000221380000F022FA380000F043FA234BDF
:1027C0008000C5502800FFF791FF0123010022007F
:1027D000029330002300049403940194009400F0C9
:1027E00033FAA8632800FFF781FF012302002100CC
:1027F000019338002300049403940294009400F0A1
:1028000023FAE863402008F03DFF2A00483228649C
:10281000079200280BD00123137068646B6C1022A0
:102820001819E96B103408F041FF402CF6D1079BD2
:102830001B78002B05D1380000F076F9300000F04D
:1028400073F909B0F0BDC046652500008C03002077
:1028500070B5437A0400002B03D1012243814272F8
:10286000C360230048331B78002B02D12000FFF700
:1028700071FF18263300082120790D4D4343EB18D2
:10288000595604F085F933000821A0794343EB1829
:10289000595604F07DF9082160794643AD1969560F
:1028A00004F076F9034B200006CBFFF7A1FE70BDC4
:1028B00068EA0000840300201FB5094A094B0A4951
:1028C0001360002393800293013301931633009326
:1028D000162201330548FFF751FE05B000BDC04682
:1028E0008403002000093D00E00D00203803002093
:1028F000084B1968002909D1EFF31080064A002817
:1029000003D172B6BFF35F8F013111701A680132C3
:102910001A6070474805002044050020084B1A68DB
:10292000002A0CD01A68013A1A601B68002B06D1E5
:10293000044B1B78002B02D0BFF35F8F62B6704749
:102940004805002044050020FF2310B50370C02374
:10295000002104009B004170418083800C220830DC
:1029600008F0C0FE200010BD01230A0010B51A4077
:10297000194208D00C4A1370033343708368002B4C
:1029800000D0984710BD0223194204D006490B70AD
:10299000C3684270F3E704231942F3D0024A13706C
:1029A000033343700369EAE74E48004110B5FFF76F
:1029B0009FFF0C4B1B8C1B071B0F0B2B0FD80A4ABE
:1029C0009900885800280AD00F2408490A78A243A1
:1029D00013430B70064B1978C9B2FFF7C5FFFFF719
:1029E0009DFF10BD004800414C0500203F480041BC
:1029F0004E480041F8B500230278050018000B2A64
:102A000077D93C4E2B702B780B2B07D801229A409C
:102A10003168114204D001332B70F4E7012068E0E3
:102A2000FFF766FF3768344C002F2BD12022334B41
:102A3000334859690A435A611022D9690A43DA6155
:102A4000022223883900934323802388013A1343C9
:102A500023802C4B6063BF32A36308F043FEC02287
:102A60003900284808F03EFE4022C120264B800055
:102A70002380264B26491A601A581140C02212049E
:102A80000A431A5001231A00297830688A40024309
:102A900032600F261F4A880085501F483140027857
:102AA000B2430A43027002201C4A1178814311701C
:102AB000117819431170297822698B409A43226159
:102AC00060223F21636C934363642A79636C0A40FC
:102AD000134912020B400321134363646A79636C48
:102AE0000A40104992050B4013436364FFF716FF39
:102AF0000020F8BD400500200048004100040040CF
:102B000080040020C0030020020F000000E100E06C
:102B1000FFFF00FF4C0500203F48004140480041B6
:102B2000FFC0FFFFFFFF3FFF70B50500FFF7E0FEAE
:102B30006B785CB2062B2BD02B7802240B2B27D87A
:102B400001229A40144B1968114221D0196891430F
:102B500019601B68002B14D14022104BDA67BFF3B9
:102B60004F8FBFF36F8F21000D4A0E311388A3439F
:102B700013800C4BDA698A43DA615A6910318A434F
:102B80005A6100242B78084A9B009C50FF232B702D
:102B9000FFF7C4FE200070BD4005002004E100E006
:102BA00000480041000400404C0500200232920021
:102BB00011507047037870B505000C0001710B2BA4
:102BC00014D8FFF795FE29780F2509482940037886
:102BD000084AAB430B4303703F23516C1C40064B28
:102BE000240219400C435464FFF798FE70BDC046A0
:102BF0003F48004100480041FFC0FFFF037870B527
:102C000005000C0041710B2B14D8FFF771FE2978D9
:102C10000F25094829400378084AAB430B4303704A
:102C20000323516C1C40064BA40519400C4354640B
:102C3000FFF774FE70BDC0463F48004100480041A8
:102C4000FFFF3FFF00787047F0B587B001930CABF2
:102C50001E780DAB1B78050002930EAB1B78007835
:102C6000039310AB1F78049105920B2802D9002022
:102C700007B0F0BD6B78062BF9D0AB78002B00D1F4
:102C800079E01021080008F0F3FC0028EFD02B7841
:102C90003B4A1B019B181A00D168002904D0D16857
:102CA0008B4201D0D268F7E7D06001220223AA70DC
:102CB000964203D0DB18022E00D0130006240188B0
:102CC000114301800188A143018001881234A1438E
:102CD0000180153C018826402A4C360221400E43D3
:102CE0000680029E0188284C16402140B6020E4301
:102CF0000680039E0188254C16402140F6020E43B3
:102D000006800188224E3A40314012030A430721CF
:102D100002800F9A114002884903D204D20C0A4360
:102D200002806A4692884280049A4260029A002A8F
:102D300008D0019A41685A43002F01D00F9CA2404D
:102D40008A184260059A8260039A002A09D0019A83
:102D500084685A431300002F01D10F9A9340E3185F
:102D600083600023EA789A4203D02B78044A1B013F
:102D70009B18C3607CE7024B0001C01895E7C04672
:102D800080040020FFFCFFFFFFFBFFFFFFF7FFFFBA
:102D9000FFEFFFFF012070470020704781717047EF
:102DA00041717047C172704701737047417370473A
:102DB000837B9343194381737047C079C0B27047D6
:102DC000007AC0B27047407AC0B27047807AC0B211
:102DD0007047008A00B270470079C0B27047017135
:102DE0007047408A80B27047808A80B27047C08A3C
:102DF00080B2704710B504002379032B02D103F091
:102E000049FCF9E7012010BD70B505000C002B68E6
:102E10002800DB689847002807D103F03BFC002C12
:102E2000F5D0200003F016FCF1E770BDF8B5050001
:102E30000F00140003F0D8FB060003F0D5FB801B45
:102E4000B8420DD22B682800DB689847002808D1CB
:102E500003F020FC002CF0D0200003F0FBFBECE79B
:102E60000020F8BD70B505000E0003F0BDFB0400A6
:102E700003F0BAFB001BB04205D22B79032B04D11F
:102E800003F008FCF4E7002070BD0120FCE7C369F3
:102E900070B50400002B17D003F0A6FB64260500D4
:102EA000236820001B6B984700280DD003F09CFB83
:102EB000E369401B984209D80A21012003F025FA52
:102EC000704303F0C7FBEBE7012070BD0020FCE777
:102ED000064BFF2203600023037142714382C272DA
:102EE000838282818373C382C361704724E70000B9
:102EF00070477047704770477047417170478171E4
:102F0000704701717047000010B5034C083404602D
:102F100001714271837110BD9CE7000010B5024839
:102F2000FFF7DCFB10BDC0463803002010B5024897
:102F3000FFF7D9FB10BDC0463803002010B502488A
:102F4000FFF7D2FB10BDC0463803002010B5027950
:102F5000042A26D0032A26D0022A26D0013A534238
:102F60005A41154B52421A40D21843798179013B9C
:102F700000291CD001291AD0022918D0032916D003
:102F800059424B410021DBB2140A02724472140C04
:102F9000120E8472C272017343730848FFF758FC23
:102FA00010BD074AE1E7074ADFE7074ADDE75C4271
:102FB0006341DBB2E8E7C04640420F00380300201F
:102FC0000024F40000127A0000093D0010B5024808
:102FD000FFF729FB10BDC0463803002010B58168FB
:102FE000C2680248FFF74AFB10BDC0463803002004
:102FF00010B50248FFF75EFB10BDC0463803002045
:1030000010B50248FFF718FB10BDC046380300207A
:1030100010B50400FFF778FF044B2000083323604D
:10302000034BA3600023A38110BDC046D0E700007E
:1030300000093D00002310B51A0019000148FFF7F0
:10304000E7FF10BD7C05002072B6BFF35F8FBFF3B2
:103050004F8FBFF36F8F0120704710B50400006AD7
:103060000368DB689847631DD87FFF2802D00121E1
:1030700003F01AFD23682000DB6F9847642003F0FB
:10308000E9FA012010BD10B505300021C07F03F022
:103090003BFD10BD10B505300121C07F03F034FDAC
:1030A00010BD80F31088BFF35F8FBFF34F8FBFF366
:1030B0006F8FBFF35F8FBFF34F8FBFF36F8F70477B
:1030C00070B504000D001600FFF702FF034B2662E7
:1030D0002360631D2000DD7770BDC0460CE8000052
:1030E000F8B504000E00EFF31087FFF7ADFF0025E1
:1030F000A8421BD0206A03681B6A984723682000F7
:103100009B6F98477F21206A314003681B6898476E
:10311000206A290003681B68984723680500DB6F55
:1031200020009847206A03685B6A98473800FFF7D9
:10313000B8FF2800F8BDF7B5040016000191EFF3C1
:103140001087FFF781FF0025A84220D0206A03687E
:103150001B6A9847236820009B6F98478021019B3A
:10316000206A0B43190003681B6898470500206A12
:10317000310003681B6898471023013BFDD1236889
:103180002000DB6F9847206A03685B6A9847380025
:10319000FFF787FF2800FEBDF7B504000E00009280
:1031A0000193EFF31087FFF74FFF0025A84226D0C9
:1031B000206A03681B6A9847236820009B6F984722
:1031C0008021206A4942036831431B68C9B298478D
:1031D0000500009E019BF3180093009B9E4206D0C1
:1031E000206A3178036801361B689847F5E7236841
:1031F0002000DB6F9847206A03685B6A98473800B5
:10320000FFF74FFF2800FEBD10B5006A03689B6AF8
:10321000984710BD10B5C31C0400D87F03F0A0FC74
:10322000431E98410634E37F584010BD10B504306A
:10323000C07F03F069FC10BD10B5C31DDB7F0530F6
:10324000C07F594003F060FC10BD10B50379040045
:10325000022B08D00021FFF7EFFF00212000FFF72D
:10326000E5FF0223237110BD0823881018400300D6
:1032700010B5064A0833984205D0145C8C4203D03E
:103280000130C0B2F7E7002010BDC0468CE8000056
:10329000F8B50400FFF7BEFF002805D022002A324F
:1032A00013780133DBB213702100230029310A782F
:1032B0002B33824252D01A780B254F2A00D912356F
:1032C0001A785219D2B21A7008701A789F2A44D903
:1032D0002100E28D2A315208E2850A78042A04D9B5
:1032E0008022E08D12010243E2851A7825006032C7
:1032F000D2B21A7000232C350B702A78D3B2002A70
:1033000048D02600303633780133DBB233700B2BD4
:1033100023D93F23E18D20001940FFF7A5FFE18D60
:1033200007008909C9B22000FFF79EFF2100220093
:1033300075313F010B783843C0B27432002B12D183
:1033400010701378062B02D91378432B0BD9002366
:103350002B70638A01339BB26382F8BD1A781432F2
:10336000D2B21A70B1E70B785F1CE3183133FFB2A9
:103370000F70187009781378994208D300232B70C6
:103380002300012208332000DA77FFF75EFF0023D5
:103390003370E2E7E18D054A9142DED101222A70C5
:1033A00022007534303213702370D6E7380B0000DA
:1033B000F7B5050078352F7804007B1C2B70002FA3
:1033C0000ED10300020076330193FF321B78127A8C
:1033D0009A420BD8FFF739FFE38A01339BB2E382AD
:1033E0002B78072B01D900232B70F7BD0600C318DB
:1033F00077367933197833785A1C194101233270A2
:103400001940FFF713FF3378052BE9D9019B37707B
:103410001B78019A01331370E2E7037910B5042B8E
:1034200002D1FFF735FF10BD0379032BFBD1FFF766
:10343000BFFFF8E71023054A10B5917B0B43937348
:10344000034B1868FFF7E9FF10BDC046002C00428F
:103450008C05002072B6BFF35F8FBFF34F8FBFF3B1
:103460006F8F012070473C20704780F31088BFF3B6
:103470005F8FBFF34F8FBFF36F8FBFF35F8FBFF3CC
:103480004F8FBFF36F8F704710B503790400012B86
:1034900005D000220121FFF74EFE012323710120F8
:1034A00010BD0368F7B5DB6804000E0015009847EF
:1034B000019000281DD0002E18D0002D16D0EFF35B
:1034C0001087FFF7C7FF00280DD023002A331A7892
:1034D0002978914201D91B782B70210030002A787D
:1034E0002B3108F0E3F83800FFF7BFFF0023673403
:1034F00023700198FEBD10B53D210400FFF7F0FDDB
:10350000FE223D2102402000FFF715FE10BD000005
:1035100070B5040015001A00FFF7D2FD034B200020
:103520002360A31DDD77024BE38470BD7CE90000BE
:10353000FF040000F7B50400EFF31087FFF78AFFE0
:10354000002866D0206A03681B6A9847631D0193B0
:10355000D87F002103F0D8FA206A002103681B6895
:103560009847206A002103681B689847031FDBB255
:1035700006003C2B44D8206A002103681B6898474A
:10358000A379E071002B06D1E37962799A4202D0E7
:10359000E379FF2B34D1206A002103681B68984728
:1035A0002072206A002103681B6898476072206AB5
:1035B000002103681B689847230000222A33A07269
:1035C0001A7025002A352A78331F9A4210DA2B7890
:1035D000206ADBB20093036800211B689847009BB8
:1035E000E3182B3318702B780133DBB22B70E8E72C
:1035F000A38A012201339BB2A382230067331A708E
:10360000019B0121D87F03F07FFA206A03685B6A7F
:1036100098473800FFF729FFF7BD000070B5050097
:10362000081C07F0D1FE00220E4B07F025F80E4BC8
:10363000002206F01BFC05F0C7F90400020C07216C
:103640002800D2B2FFF777FD220A28000821D2B263
:10365000FFF771FD28000921E2B2FFF76CFD0120A0
:1036600070BDC04680842E4180844E4070B50D00F0
:1036700001210400FFF734FD1C218843C2B20D4034
:1036800020002A431B39FFF756FD27212000FFF7B2
:1036900027FD0306F9D570BD10B503790400022B90
:1036A00016D0030029331B785BB2112B08DD55229D
:1036B0005A21FFF740FD70225C212000FFF73BFDFF
:1036C00023000833D97F2000FFF7D0FF02232371A6
:1036D00010BD70B504002821FFF702FD2379050015
:1036E000032B08D1030706D52000FFF7D5FFE38A97
:1036F00001339BB2E3822379DAB2042B12D1154253
:1037000010D024212000FFF7EBFC4010404200B213
:10371000208202F069FFA0662000FFF7BDFF2000B5
:10372000FFF708FF70BD0000034B10B518680028B4
:1037300001D0FFF7CEFF10BD94050020034B10B55C
:103740005868002801D0FFF7C4FF10BD9405002081
:10375000034B10B59868002801D0FFF7BAFF10BDE1
:103760009405002010B503790400042B19D0030040
:1037700029331B785BB2112B08DD55225A21FFF744
:10378000DAFC70225C212000FFF7D5FC40222521C5
:103790002000FFF7D0FC10212000FFF767FF042373
:1037A000237110BD10B5037904000020032B05D050
:1037B00020006734FFF7D6FF2078C0B210BD10B5E7
:1037C00003790400032B19D0030029331B785BB263
:1037D000112B08DD5D225A21FFF7ADFC7C225C2114
:1037E0002000FFF7A8FC002225212000FFF7A3FC02
:1037F0000C212000FFF73AFF0323237110BDF7B51A
:1038000004000D0016003C2A03D900230093009801
:10381000FEBD03681B6A98472000FFF73DFF236841
:103820002000DB6A984700900028EED0EFF3108765
:10383000FFF710FE00283BD0206A03681B6A9847F8
:10384000631D0193D87F002103F05EF9206A802177
:1038500003681B689847206A311D0368C9B21B685A
:103860009847206AE17A0368AE191B689847206A76
:10387000217B03681B689847206A617B03681B688B
:103880009847206AA17B03681B689847AE4206D020
:10389000206A2978036801351B689847F6E7019B81
:1038A0000121D87F03F030F9206A03685B6A9847EA
:1038B0003800FFF7DAFD2000FFF781FFA7E70300DC
:1038C000293310B51970002A1CD08A1C01DAFE2297
:1038D0001A7000215956CBB20D2905DC1F22123374
:1038E000134021321A4309E06022112903DD1F2110
:1038F0000B330B40F6E70E331A43D2B21121FFF718
:103900001AFC10BD0A00123207DAEE221A701A7879
:103910001F2312321A406133E4E70D29F7DD0D222F
:10392000F4E770B50D0004000A0005230221FFF73B
:1039300033FC6A1D022319212000FFF72DFCEA79D0
:1039400037212000FFF7F7FB70BD000013B504001E
:1039500000201B290BD8064BC900C918082268464D
:1039600007F0A4FE20006946FFF7DBFF012016BD2B
:103970009CE8000070B505000C000A0A2C21FFF736
:10398000DAFB28002D21E2B2FFF7D5FB70BDF7B5B9
:1039900017000E002E210500FFF7A2FB7B1E04007E
:1039A0000193002E18D06B461B79032B14D83200DC
:1039B0003B002F212800FFF7EFFB802252421443E7
:1039C000E4B2019B2800DA0038239C4322432E21D5
:1039D000D2B2FFF7B0FBF7BD7F221440F1E7000041
:1039E000F7B50400FFF739FB051E02D100252800BA
:1039F000FEBDA71DFE7F20003100FFF705FC102152
:103A00002000FFF76DFB2300283318700138C0B287
:103A1000FD28EBD80021F87F03F046F8E31DDA7F9C
:103A2000FF2A06D127490A78032ADFD8501C0870DC
:103A3000DA77DB7F244A99008C50002B38D104229E
:103A40002249300002F066FB2000FFF725FE8F229E
:103A50003C212000FFF76FFB30226F212000FFF791
:103A60006AFB55225A212000FFF765FB70225C217A
:103A70002000FFF760FB164B022201A920000B80FB
:103A8000FFF785FF12212000FFF760FF20000421CF
:103A9000FFF770FF0F4A10492000FFF7BFFD20001D
:103AA000FFF729FD00220D212000FFF708FF9EE708
:103AB000012B02D104220949C3E7022B96D104222B
:103AC0000749BEE790050020940500202937000033
:103AD0002DD4FFFFCDCC4C3D0000D9433D37000035
:103AE0005137000010B50A00040000290FD0102340
:103AF0003E21FFF751FB3D212000FFF7F1FA0122A3
:103B000002433D212000D2B2FFF715FB10BDFFF7A5
:103B1000F2FCFBE770477047704710B5040002F0F5
:103B2000E3FD200010BD10B5040002F0DDFD200013
:103B300010BD000070B50C000500282200212000F7
:103B400007F0D0FD0B222000094908F01AFD0023E0
:103B50000122E372E2606A6863620023E361054B5D
:103B60002261A36180230C22DB056261236270BDA8
:103B7000FCE900000000C84270B50C0005002822D6
:103B80000021200007F0AEFD0B222000094908F0BB
:103B9000F8FC00230122E372E2606A68636222613A
:103BA0000D22054BE361054B6261A361044B236267
:103BB00070BDC04604EA0000000020C20000AA4216
:103BC0009A99993E30B5030000780822C043312409
:103BD000C0B2410045B220004840C0B2002D11DA09
:103BE000013A002AF5D15B78312158400823420080
:103BF00044B208005040C0B2002C05DA013B002B53
:103C0000F5D130BDC8B2EBE7D0B2F7E70023C3600F
:103C1000036143610383704710B50400C068002846
:103C200001D002F061FD2069002802D003685B68C2
:103C300098476069002802D003685B6898472000B5
:103C400010BD1FB50F21942369440B70002301930D
:103C5000009301331A00C06800F06AF9041E02D014
:103C6000012002F0F7FC200004B010BD70B5040084
:103C7000C0680E00002801D002F036FD206900283F
:103C800002D003685B6898476069002802D0036827
:103C90005B689847102002F023FD050044213200A4
:103CA00000F01BF901212800E56000F033F900283D
:103CB00002D10025280070BD2000FFF7C2FF051EBD
:103CC000F7D00C2002F00CFD094B84600833036030
:103CD000084B606143600C2002F002FD064B8460DB
:103CE000083303608023DB0043602061E2E7C046C5
:103CF00028EA0000010400000CEA00000176704789
:103D00004176704770B50C0005001600081D202292
:103D1000002107F0E7FC242323606B8963600D23F7
:103D2000A3602B682661636170BD70B50C0005004F
:103D30001600081D2022002107F0D4FC2423236054
:103D40002B8963600C23A3606B682661636170BD7F
:103D5000F0B58DB004000491059202F045FC0F21EE
:103D600004ABC918FD230B70637E0390002B1AD19E
:103D7000237E012B10D10525F5330B700023019311
:103D8000009301331A00E06800F0D2F8002827D130
:103D9000002630000DB0F0BD0A25022BEED1E02246
:103DA0001D000A70EAE7012B0CD0022B0ED0032B6A
:103DB00010D0042B10D00A25052B0FD0062BDDD1F7
:103DC000152304E03923364D0B70D7E732236E25D7
:103DD0000B70D3E72F23F6E72423F8E71E23F2E73F
:103DE00028000AAD02F036FC012306222900E06813
:103DF00000F0E7F8061ECBD02800AF78FFF7E2FE10
:103E00008742C5D11B2004ABC0186F79FFF7DAFEDB
:103E10008742BDD1E8782B790002C01805F03AFC42
:103E2000071C28786B780002C01805F033FC1D4988
:103E300005F04EF91C4904F081FF1C4905F062FAB7
:103E40001B492060381C05F043F9174904F076FF40
:103E5000184905F057FA00216060089104F08CFDC4
:103E600008AD002800D1251D13492868099104F0E8
:103E700097FD002800D009AD2B686360059B002BDF
:103E800004D019002000039AFFF73CFF049B002B8D
:103E900000D17EE719002000039AFFF746FF78E77C
:103EA0004C04000000002F4300FF7F470000344215
:103EB0000000FA420000C0400000C84210B50022D5
:103EC0008068FFF745FF012010BD10B50A0080682B
:103ED0000021FFF73DFF012010BD00230372FA33DC
:103EE00001704260C360704710B5037A0400002B74
:103EF0000AD02178606800F0FBF8606800F0A9F94A
:103F000043425841C0B210BD012100F003F800281F
:103F1000EFD1F8E770B5040040680D0000F0C8F874
:103F200001202072002D02D02000FFF7DDFF70BDC0
:103F3000F8B51E00079B1500D318C26804000F00D7
:103F4000934201D90020F8BD0178406800F0D0F814
:103F5000079B002B0FD160682A00036839005B685B
:103F600098478542EED13100606800F03AF943424B
:103F70005841C0B2E7E7069B002BECD06068079A77
:103F8000036806995B689847079B9842DAD1E2E795
:103F9000F8B505000F0016000178D2B2406800F0B5
:103FA000BFF8002486420AD1A64207D96868036890
:103FB0005B69984738550134A4B2F5E70124200025
:103FC000F8BDF7B507001600002400910193B44234
:103FD00013D2FB68351B9D4200D91D00019B721B4B
:103FE000A24200D90023009A380011192A00FFF7D5
:103FF000CFFF002802D06419E9E70120FEBD0020B0
:104000007047F8B505000E0017000024BC4208D028
:104010002B682800315D1B689847002801D00134C7
:10402000F4E72000F8BD70470300FC33196ADA6931
:10403000914203D01B6AC018007E704701204042A5
:10404000FBE70300FC33D8691B6AC01A01D50130B5
:10405000FF307047F7B50193FA238027002504004D
:104060009B008360114B7F0008330E0045602900E0
:10407000009203603A00183007F034FB2300200060
:10408000FC332130DD613A001D622900FF3007F06A
:1040900029FB87239B00E3185D609D60009B200047
:1040A0002375019B2661A5756375FEBD44EA00007A
:1040B00070B5040018260C49006900F089FD2069DC
:1040C00000F0E2FB33000821207D084D4343EB184C
:1040D000595602F05DFD0821607D4643AD196956D1
:1040E00002F056FD70BDC046A086010068EA0000DF
:1040F0008A2300229B00C1540C3BC3185A609A606B
:104100000123837570470200FC32536810B50133F8
:104110009468DBB29C4202D054680155536010BDD4
:10412000F7B5019300230400150018009A422FD020
:104130002200FC32D36120691362012200F0E2FB0D
:10414000002826D02700206900F05EFC1837010007
:104150003800FFF7D8FF01262069B5420ED000F0E5
:10416000B1FB0221206900F0B7FB206900F04CFC94
:1041700001003800FFF7C7FF0136EDE700F099FBBB
:10418000019B002B03D00321206900F0A5FBE8B2BE
:10419000FEBD0500FBE710B50300827D00208242D2
:1041A0000ED0872292009C186268A4680132D2B2B5
:1041B000A24205D02133FF331800FFF7A4FF0120EE
:1041C00010BD0300FC3399685A68914206D09A6882
:1041D000805C9A680132D2B29A60704701204042F6
:1041E000FBE700228A2370B59B00827505000E0054
:1041F000C15C006900F086FB002806D10321286914
:1042000000F06AFB0224200070BD872328009B0079
:10421000EA18536894682130FF301C1B01D5013423
:10422000FF34002C0ED02C69FFF7CBFFC1B2200069
:1042300000F0A6FB0028E8D10321286900F04CFB20
:104240000324E0E7002EDED00321286900F044FBC0
:10425000D9E710B50121FFF7C4FF10BD10B5183024
:10426000FFF7AFFF10BD70B50400006900F0AAFBB6
:10427000002814D0206900F0B3FB002810D020697A
:1042800000F020FB0321206900F026FB8C239B001B
:10429000E558002D39D10023FC34E361236270BD61
:1042A000206900F0A7FB002809D0206900F09DFBE1
:1042B000002804D0206900F0A2FB0028DFD020698C
:1042C00000F098FB002826D1206900F084FB00282C
:1042D000E5D0206900F093FB002837D087239B00AE
:1042E000E218536892689B1A01D50133FF33FF210E
:1042F000002B05D020002130FF30FFF762FFC1B254
:10430000206900F050FBA075C9E7236820001B69F5
:104310009847A847BFE7206900F0D4FA2069032135
:1043200000F0DAFA206900F06AFB0028B7D0872392
:1043300000229B00E3185A609A600123A3758B2327
:104340009B00E3589342AAD09847A8E72200FC328A
:10435000D369126A0133DBB22069934206D100F0BF
:10436000A8FA0321206900F0B7FA98E700F04CFBA7
:10437000010020001830FFF7C6FE206900F0A2FA05
:10438000EFE7000010B50248FFF76DFF10BDC04613
:10439000A005002010B51523142202490248FFF79A
:1043A00059FE10BDDC0D0020A00500200022014BAD
:1043B0001A707047D4070020034AD379DB09FCD177
:1043C000A53313727047C046001000400221064B0F
:1043D0001A788A431A70DA79D209FCD199790132B4
:1043E0000A439A717047C046001000400F4B104AB4
:1043F00030B59A600F4A5A605A78D209FCD10E4AF9
:104400000E495A8004220E4BCA67BFF34F8FBFF389
:104410006F8FC021C02449005A50A4001959094D7A
:10442000294019511A600123037030BD000C00406F
:1044300002040000020311000342000004E100E056
:1044400000E100E0FFFF00FFF8B5037806000D0073
:104450001700002B01D1FFF7C9FF0023464C237042
:10446000E379DB09FCD1FA239B019D424DDA002D53
:104470004BD0424BAD029D424BDC414B9D424CDC4C
:10448000404B9D424DDC404B9D424EDC3F4B9D429C
:104490004FDC3F4B9D4250DC3E4B9D4251DC3E4B3E
:1044A0009D4251DC3D4B9D4251DC3D4B9D4251DCD8
:1044B000002308250F2101220B40002F4DD06079E9
:1044C0001B01024362710B226078884302436270D1
:1044D000627811400B4363700423227813432370E6
:1044E000E379DB09FCD13000FFF766FF0223227875
:1044F00013432370E379DB09FCD1FA208023800089
:1045000068439B00C0188012F8BD80250B23ED0185
:10451000D0E780250A23AD01CCE7802509236D0172
:10452000C8E7802508232D01C4E780250723ED0077
:10453000C0E780250623AD00BCE7802505236D007C
:10454000B8E704238025B5E703234025B2E702231B
:104550002025AFE701231025ACE720790243227123
:1045600062788A4313430422637023789343237051
:10457000E379DB09FCD1B6E7001000400BFE7C00BC
:104580000B7E3E000B3E1F000B9E0F000BCE070064
:104590000BE603000BF201000BF800000B7B0000A0
:1045A0008B3C000010B50122FFF74EFFC0230B4AE1
:1045B0009B0051680B4353600423094A11690B4364
:1045C00013610222074B196891431960BFF34F8FA3
:1045D00030BF19680A431A6010BDC0460040004150
:1045E00000ED00E010E000E010B5024801F098FC9A
:1045F00010BDC046D807002010B5024801F090FC5D
:1046000010BDC046D40A0020F7B501240326154F7B
:104610001549380000F054F81449154800F050F8D6
:104620001449154800F04CF81449154800F048F8B2
:104630001449154800F044F8144D1549280000F0BD
:104640003FF839002300009600220194114801F040
:10465000FDFB290000961E231F2201940E4801F045
:10466000F5FBF7BDD00D002000080042000C004211
:10467000D40D002000100042D80D0020001400428C
:10468000DC0D002000180042E00D0020E40D0020A9
:10469000001C0042D8070020D40A0020F8B505000D
:1046A0000E0017000024BC4208D02B682800315DA2
:1046B0001B689847002801D00134F4E72000F8BDBA
:1046C000016070479446F0B505AC25789C1E621ECB
:1046D0009441624606689207376824063A432243AB
:1046E0000724326000682140AD010024426829435C
:1046F000022B00D05C030A4322434260F0BD30B578
:10470000C0250368AD031C6812052A402243C0245B
:104710000904A40221400A431A6003685A6814433A
:104720005C6030BD0123026811680B4313600368AD
:104730001A68D207FCD4DA69D207F9D47047022389
:10474000026811680B4313600268D3699B07FCD4AD
:10475000704703681A7ED20702D41A7E9207FCD5EE
:104760007047002203685A8370470368187E400729
:10477000C00F70470368187EC00970478023026825
:104780005B42117E0B43137670470368588B80079A
:10479000C00F704702230268518B0B43538370474D
:1047A0000368187EC007C00F70470368188DC0B239
:1047B000704703681A7ED207FCD589B2012019859B
:1047C0007047012203689A757047012203681A75C1
:1047D00070470123026811680B43136003681A686D
:1047E000D207FCD4DA69D207F9D4704702230268F1
:1047F00011680B4313600268D3699B07FCD47047B0
:104800000368DA699207FCD402211A688A431A60A5
:1048100070470268936A5B0A5B020B43936203680A
:104820001A7E5207FCD5986AC0B2704710B5054889
:10483000490003F0DBFE80B2002801D0013880B2CD
:10484000C0B210BD006CDC0270B50C000126110076
:104850006308026833403440156824075B0723432C
:104860002B4313600468FFF7E1FF207370BD012341
:10487000026811680B43136003681A68D207FCD4FE
:10488000DA69D207F9D470470223026811680B4332
:1048900013600368DA699207FCD430215A8B8A438B
:1048A000110010220A435A830268D3695B07FCD4C3
:1048B000704780230268DB02116851680B43536024
:1048C00070470000036803491A685A680A405A6032
:1048D0007047C046FFFFFBFF032230B5036811405D
:1048E0001C68074D5A6809042A40E4061143640F06
:1048F0005960052C03D10268D3695B07FCD430BD35
:10490000FFFFFCFF30B503680400588B8006800F62
:10491000022813D05D8B0020AD06AD0F032D2ED0E5
:10492000588B800705D55D8B0020AD06AD0F012D9E
:1049300025D15D8BAD06AD0F281E20D04800596AE9
:104940001043C90AC0B2C902014359622368002A50
:1049500008D11A7ED207FCD5588B01234007C00F1F
:1049600058400CE01A7E9207D00F002AF4DB1A7E22
:10497000D207F7D5C022596892020A435A6030BD67
:104980000368283319700268137EDB07D80F002BE9
:1049900003D1538BDB07F7D570470123508B4007BA
:1049A000C00F5840F8E70368283319700268137E77
:1049B0005B07D80F002B04DA0123508B4007C00F90
:1049C0005840704703681868C006400F04384342D7
:1049D0005841C0B270470368187E4007C00F704747
:1049E0000368187EC007C00F70470368588BC00665
:1049F000C00F70470368187E8007C00F70470368B8
:104A0000588B0007C00F704703681A68D206520F10
:104A1000052A02D11A7E9207FCD528331878C0B235
:104A2000704700000368104A934213D00F4A934224
:104A300012D00F4A934211D00E4A934210D00E4A20
:104A400093420FD001200D4A4042934201D10630DB
:104A500040B270470020FBE70120F9E70220F7E7AA
:104A60000320F5E70420F3E700080042000C0042B1
:104A7000001000420014004200180042001C0042D6
:104A8000F8B5FFF7CFFF00282CDB1D4BC00018182E
:104A900005230479C3560320FF221840C00082403A
:104AA000C021D2438140002B1DDB1F2501201D406A
:104AB000C026A840134D7600A851C0269B089B0035
:104AC0005B19B6009F593A401143995128603F2322
:104AD00023408024E4011C430B4B5C805A7852B283
:104AE000002AFBDBF8BD0F200340083B07489B086A
:104AF0009B001B18D86902401143D961E7E7C04603
:104B0000B8EE000000E100E0000C004000ED00E025
:104B1000F8B504000F0016001D00FFF7B1FF2000DC
:104B2000FFF700FE1C21BB000B4071072268090C37
:104B30000B431360842322689375012F1AD110212F
:104B4000012E00D008390C4B69431868C00003F0EF
:104B50004DFD0722216802408B895203DB04DB0CE8
:104B600013438B81226803049089DB0C400B4003C4
:104B700018439081F8BDC04684000020F7B50500B9
:104B8000019308AB0C0016001F78FFF722FE2800E7
:104B9000FFF776FFC021C022890224040C40920353
:104BA000BF073605274316403E430C2707222B68D4
:104BB0003E431E60019B296813401A0080239B021C
:104BC00013434B602A68D3695B07FCD4F7BD000030
:104BD000F8B504000F00FFF753FF2000FFF747FE72
:104BE0001422236879001A600C4B25681E68300077
:104BF00003F0FCFC0A490400300003F0F7FC7D23BD
:104C0000FA215843C90003F0F1FCFF23241AE86895
:104C1000053C1C4098430443EC60F8BD8400002030
:104C200040420F003F20704713B56B460268D971B0
:104C30000733546819000122A04716BD10B50221A0
:104C4000006900F027FC10BD10B50321006900F0D9
:104C500037FC10BD10B51300084A0400D279002AB1
:104C600003D101230020636010BD0A000069032105
:104C700000F01EFD0028F4D0F6E7C0460C0000202E
:104C800010B5054C03002068421C04D11A681800B6
:104C900052699047206010BD58000020074A030069
:104CA000106810B5411C03D001235B42136010BD96
:104CB0000221186900F0EEFCF9E7C0465800002018
:104CC00010B503784222023303700249024800F013
:104CD0009BFD10BD14000020040E002010B50178CB
:104CE000030042780020A12908D1212A05D11749C3
:104CF00017481A3A00F088FD012010BD2129FCD187
:104D0000202A13D111491248193A00F01DFC9622AD
:104D10000E4BD200196891420ED1DA7901231A4262
:104D20000AD1FA2001F092FF0020E6E7222A06D1FC
:104D30009A78064BDA71EAE701F08EFFF4E7232A4E
:104D4000DBD15A88034B1A60D7E7C0460C0000201D
:104D5000040E002008000020FA220021054B9200DA
:104D60009A60054A08321A60044A59601A61197635
:104D70007047C046E80D0020E8EE0000040E002059
:104D8000704770B50F26CB1D02003240D5B22C0003
:104D900000093034092A00DD07341C705A1E99427C
:104DA00000D170BD1300EFE710B50400806906F074
:104DB00073FCA06A06F070FC200010BD10B5040062
:104DC000FFF7F2FF200001F08FFC200010BD000073
:104DD00070B5032908D1324B8000C058002802D09A
:104DE0000368DB68984770BD82291FD1C3B22D4D7F
:104DF0005A01AA1891692C4C80010C40C0218905E8
:104E000021439161294908334018802150612A6863
:104E10005B01D01804794942214301717020995CEB
:104E200081430800302101439954DCE70029DAD19D
:104E3000C024C1B21B4E4A01B21893681A4DA40592
:104E40002B40234393601A4B8001C0180B00506025
:104E50003068072608335B01195CB1430E0001215D
:104E60003143195491690D402C43946170240F49CA
:104E70005161195CA1430C00102121431954916820
:104E80000C4CC3180C408021490321439160916868
:104E9000890B89039160402259790A435A71A2E72C
:104EA000080E0020BC120020FFFFFF8F300E0020F4
:104EB000F00F0020FF3F00F0EFF3108303600123A9
:104EC000436072B670470368002B02D162B6BFF32D
:104ED0006F8F704737B5056904006846002D14D1FF
:104EE000FFF7EAFF019B621D013B02D3D57FEDB2C4
:104EF000FAE768460193FFF7E6FF002D01D1002095
:104F00003EBD206AE369C01AFAE7FFF7D5FF220029
:104F10000025019B3432013B02D31578EDB2FAE74C
:104F200068460193FFF7CFFF002DE8D0206BE36ABE
:104F3000E9E70000F0B5FF250126426883681168A3
:104F40002B405B01CC186419A77AD3183E43A67294
:104F5000C6689C680B4FB60436093C4034439C60DD
:104F600083682B405B01D2189468A40BA40394605F
:104F7000402283682B4008335B01CB1819790A4320
:104F80001A71F0BDFF3F00F0F7B5056904000E008F
:104F900017006846002D43D1FFF78EFF019B601D6F
:104FA000013B5A1C0BD0C27F591E002A05D168460E
:104FB0000193FFF788FF2800FEBD0B00F1E768466C
:104FC0000193FFF780FFE369AF420AD0226A9A4259
:104FD00007D95A1CE261A269D3181B7873550135B1
:104FE000F1E7226A9A42E6D10023E3610133684681
:104FF0002361FFF761FF22000021019B671D013B38
:105000003532581CD3D0F97710785E1E002805D0B1
:10501000200011700193FFF78DFFECE73300F0E7FC
:10502000FFF74AFF2000019B3430013B5A1C06D099
:105030000278591ED5B2002AB9D00B00F6E76846AF
:1050400001930025FFF73FFFE36ABD4202D0226BC8
:105050009A421CD8226B9A42ADD100236846E36283
:105060002361FFF729FF270022000021019B34372D
:10507000013B3532581C9AD0397010785E1E0028DA
:105080000DD0200011700193FFF754FFEBE75A1C7D
:10509000E262A26AD3181B7873550135D4E7330056
:1050A000E8E7F7B582684368D2B21100040008311E
:1050B000186849014118C879C00729D5012552014E
:1050C000CD719B189A6861699204920C002923D1D2
:1050D0002262226A002A41D0A26A656168465A604B
:1050E000FFF7EAFE342294462200019B671D013B34
:1050F000A4443532591C2DD06146FD770978581EDD
:10510000CEB2002905D0019368461570FFF7DBFE8B
:10511000F7BD03001670EDE72263226B002A1DD055
:10512000002227006261A26968465A60FFF7C4FE48
:10513000019B621D9446013B34373032591C09D023
:1051400061463D70C97F581ECEB20029DBD10300F5
:105150001670F3E768460193FFF7B5FE2000FFF7EE
:10516000E9FED5E713B56A4600230C00D01DD371C4
:10517000FFF7A6FD23681818206001F0E3FD6B46D9
:10518000D91D01F0ABFD236818186B462060D87953
:1051900016BD000003290ED180220E4B62311B6820
:1051A000FF31585C524202435A5468226339FF323D
:1051B000FF39995470470129FCD18022054B2431D5
:1051C0001B68FF31585C524202435A54282223394B
:1051D000FF32EDE7BC12002070B500252F4B0121F6
:1051E00004001A201D7001F05FFC01211A2001F05B
:1051F0008BFC2B4B012119201D7001F055FC012166
:10520000192001F081FC2023264A0F20D1690B438D
:10521000D361012224490B7813430B70234B197877
:105220008143197006211D782943197020490D7892
:105230002A430A701A7802401A70602219780A43C9
:105240001A701C4B1C4A5A805A78D209FCD11B4850
:1052500001F0C4F91A4D280001F088FD280001F082
:105260009BFD7F212B68C1201A7880000A401A70AC
:10527000042219780A430C211A701A898A431149A9
:105280001A810A581202120A0A5080220A601978FA
:105290007E3A0A431A700123237070BD250E002048
:1052A000240E002000040040584400413C440041CA
:1052B00059440041000C0040064000008D5C000095
:1052C000BC12002000E100E00078002810D001218D
:1052D000084B1B681A898A431A810822198B0A43D2
:1052E0001A830422198B0A431A830022024B1A6084
:1052F0007047C046BC120020B41200200A000E49BC
:105300008B699B0B9B038B610B680221FF33197226
:105310009879823901439971197A8907FCD57F20E0
:10532000064B0240997A8143114380229972997AFF
:1053300052420A439A727047BC120020005000414A
:1053400010B50B790C00002B0CD10800FFF7C6FC40
:10535000002801D0012010BD094A93699B0B9B03D3
:105360009361F7E701F0EEFC210001F0DBFC00287F
:10537000F0D1034A93699B0B9B039361EBE7C04613
:10538000BC120020F7B50D001100832A19D1EBB231
:10539000324C5A01A21891693148AD010840C02130
:1053A0008905014391612F4920686D1870210833E8
:1053B00055615B011A5C8A43110040220A431A546A
:1053C000F7BD022A45D1284AAB009858002802D0E0
:1053D00003685B699847382001F082F9234B8027E6
:1053E000036000231D4E7F00421D03620361436181
:1053F000C36146608560C760D3772F32C3620363A1
:10540000040013703800537006F03CF90190A0615D
:10541000380006F037F9EBB25A01A062B218916871
:105420000F4808330840C021890501439160316865
:1054300007265B01585CAD00B043060003203043F3
:105440005854019B20005360FFF774FD064B5C51DC
:10545000B6E72800FFF7BCFCB2E7C046BC1200204C
:10546000FFFFFF8F300E0020080E002014EF000019
:1054700070B505000124064BA200D258002A05D0C1
:1054800021002800FFF77EFF0134F4E770BDC0461D
:105490005C000020084B8A00D05810B5002803D0CB
:1054A00003689B68984710BD044BC9B2490159185D
:1054B00088688004800CF6E7080E0020BC120020EB
:1054C00010B50C00FFF7E6FF00280CD0064BE4B245
:1054D00019688023083464010C1962795B42134314
:1054E00063710223E37110BDBC12002070B5CBB212
:1054F000124A13485C0189018918021951609168A8
:10550000104D08330D4080218902294340259160C8
:105510009168890B8903916001685A018A1816798C
:105520003543157195796D06FCD55B01C918CB79AA
:10553000DB07FCD500198068C0B270BDF00F0020F9
:10554000BC120020FF3F00F070B5140040220B4B4E
:105550000D001B68FF3359790A435A710021FFF788
:10556000C5FFA04200D9200000230549A34203D073
:10557000CA5CEA540133F9E770BDC046BC12002092
:10558000F00F002010B50C48C9B2490142189368C9
:105590009B049B0C3F2B0BD99468403B9B04A40BB2
:1055A0009B0CA4032343936041188868C0B210BDCC
:1055B00093689B0B9B03F6E7BC120020F0B51C0020
:1055C0002F4B85B01B6806000D000192002B54D0B4
:1055D0002C4F3B78D9B2002B02D1192001F094FA5C
:1055E00064233B70284BAA00D058002808D00368D9
:1055F00022005B68019998470400200005B0F0BDC7
:1056000029003000FFF746FF844204D9290030000A
:10561000FFF740FF040029003000FFF7B3FF01212E
:10562000EBB21A4F03935B010293029A3B68019815
:105630009B18FF335A7A0A435A72154BA90122006C
:10564000C91806F033F8002CD7D029003000FFF736
:1056500021FF0028D1D14021039B3A6808335B0128
:10566000D3181879014319710121D971029BD318FC
:10567000FF339A7A0A439A72BFE701246442BCE777
:10568000B4120020240E0020080E0020BC120020BE
:10569000F00F002013B56B46DC1D22000123FFF73D
:1056A0008DFF012801D1207816BD01204042FBE783
:1056B000F0B51C003A4B85B01B680E000192002B20
:1056C0003FD08023DB019C423BD8364D2B78D9B2AA
:1056D000002B02D11A2001F017FA642300272B7047
:1056E000314BB201D3180293002C2CD02F4B1B68E6
:1056F0000393FF2333401D0000930835039B6D0186
:105700005D19AB79DB0921D0294B2A49186802F0D1
:105710006DFF294B1721584302F068FF274BEA79A8
:10572000920713D49A5D002A01D10138F7D20122E1
:105730009A55009B5A011D4B9B189A69920B920334
:105740009A6101277F42380005B0F0BD00221B4B53
:1057500025009A55402C00D940252A00019902982D
:1057600005F0A4FF009BA9045A01104B890C9B185B
:10577000029A7F195A619A69641B920B92030A4339
:105780009A61009B039A08335B01D3180222DA71F5
:105790005979823A0A435A71019B5B190193A3E735
:1057A000B4120020250E0020300E0020BC12002074
:1057B0008400002040420F0070110100270E0020DD
:1057C00070B50C001D000D4BA601F618110030003D
:1057D0002A0005F06BFFE4B2094A640114196661FE
:1057E000A369084928000B40A361A169AB04890B98
:1057F0009B0C89031943A16170BDC046300E002087
:10580000BC120020FF3F00F0F7B5104B0F001B78D3
:1058100014000190002B0CD10D4B16001D78002DAB
:1058200009D00C4E0C48358828182D1905F03EFF7C
:1058300035802000FEBD002EFBD033007A190021F8
:105840000198FFF7BDFF2D18361AF4E7B0110020BC
:10585000B1120020B2120020B1110020F8B50F00E3
:1058600016000024012A26D9100005F00BFF0500C0
:10587000380006F07FFE032302220130400028702A
:105880006B7096420DD9397800290AD0531CDBB2CF
:105890000137A9549E4203D00232EC54D2B2F0E751
:1058A000320029000548FFF7AFFF441EA041C4B2F3
:1058B000280005F0F1FE2000F8BDC046040E0020CF
:1058C000F0B50025012785B0184B0E0069461F7002
:1058D00004000095FFF746FC154B01A90B806A3BBD
:1058E000FF3BCB716E3B0B72009B320009334B8048
:1058F0000E4B8D714F7108711D70092E0FD00D4E1A
:10590000092237700C4F200000953D80FFF77CFF87
:1059100069462000FFF726FC3A88084935702000C8
:10592000FFF772FF012005B0F0BDC046B0110020A6
:1059300009020000B1120020B2120020B1110020B3
:10594000F0B5CF7805000E0093B0022F09D1C988B9
:105950002B48FFF7B5FF441EA041C4B2200013B08E
:10596000F0BD01F0EFF9310001F0CCF9002803D0CF
:10597000C417241AE40FF1E7012F0BD1F288214953
:10598000112A11D8D2B2002A0ED02800FFF73CFF0E
:105990000124E3E70400032FE0D1B378002B05D105
:1059A000F2881949032AEDD90A78EEE7022B06D1CD
:1059B000F28816492800FFF751FF0400CEE7012BBB
:1059C00002D1F2881249F5E7032BC7D1114B01A987
:1059D0001868FFF7D6F9104B03A91868FFF7D1F93B
:1059E0000E4B05A91868FFF7CCF90D4B07A91868ED
:1059F000FFF7C7F96B460533DC77F28801A9D9E7D1
:105A0000040E002045EF000038EF00002CEF0000EE
:105A10003CEF00000CA0800040A0800044A080006B
:105A200048A0800037B5050048780C000B2810D836
:105A300002F0D2FD061B0F310F484D7551546E71A7
:105A4000097801AA002906D1022311802800FFF756
:105A5000B7FE01203EBD00231380324B1B78012B83
:105A600000D1137002230021F0E78A780023012A75
:105A700009D16A4693802C4B1B78012B00D11371FE
:105A8000022301AAEFE7274A1370284A93699B0B68
:105A90009B039361DDE78C78012C07D1224B01AA8F
:105AA0001C70234B1B7813702300DCE7002084421A
:105AB000D0D11C4B01301D4A187093699B0B9B037E
:105AC0009361C7E728008978FFF718FCC1E7280031
:105AD000FFF736FFBEE70123164AC4E70B78002024
:105AE000DB06B7D12800FFF7C3FC2A200221A278E9
:105AF000104BFF301A600D4A13681C5C21434A2486
:105B00001954FF34195D2938FF3801431955D4E77A
:105B10000123094AA7E78A78074B1A60B5E70020F6
:105B200098E7C046260E00202E0E0020BC12002052
:105B300004E60000B4120020B81200204B4BF7B569
:105B40001C780700002C00D083E0494E33689B8B03
:105B50001B070ED521002000FFF73AF93268102309
:105B60001100FF31887A03438B72424B1C6008237B
:105B7000938333689A8B52071FD504229A833E4A37
:105B80001378002B0AD01378013BDBB21370137823
:105B9000002B03D101211A2000F0B6FF374A1378F9
:105BA000002B0AD01378013BDBB213701378002B63
:105BB00003D10121192000F0A7FF3368FF331A7ABF
:105BC000D2061ED510221A72597930320A435A7100
:105BD00060232B4938000A781A423BD1FFF722FF95
:105BE0003368FF33002838D08022997952420A4323
:105BF0009A711A7A520604D540221A72597A0A43C7
:105C00005A72336800241D8C01239D43EDB2019329
:105C1000E1B2002D1DD02B002341019A134215D073
:105C20002300326808335B01D318DA79D20702D433
:105C3000DB799B0707D5134BA200D058002810D062
:105C400003681B689847019BA3409D430134092CBE
:105C5000DED1F7BDFFF774FBC2E720210A4A91713C
:105C6000C7E73800FFF796FAEDE7C046B11200200B
:105C7000BC120020B4120020250E0020240E0020AB
:105C8000F00F0020080E0020FF50004110B5024820
:105C9000FFF754FF10BDC046040E0020014B024A1E
:105CA0001A607047BC12002000500041012070476C
:105CB00010B50368014A1B6A984710BD1304000021
:105CC0000300FC33D96F9A6F914203D0DB6FC01889
:105CD000007D704701204042FBE710B504000069D9
:105CE000FEF720FD22000023FC329367D3679E223B
:105CF0009200A4186366A36610BDF0231B0119402F
:105D0000802306209B0099420AD00133FF330130E3
:105D1000994205D0802300205B00994200D10530D4
:105D200070470F2001400020012903D00239481E8E
:105D30008141481C70470000B923F0B5182785B091
:105D400002919B000400C05C3B0008214343324E9B
:105D50001500F318595600F01BFF304B0821E05C8A
:105D60003B004343F318595600F012FF2C4BE25C02
:105D70000393022A09D11133E05CFF2805D00821E2
:105D80004743F719795600F003FFBA27BF00E05DDB
:105D9000FF2819D0012100F087FE1822E35D214978
:105DA0005A43B356B618DB015818BB21890060501E
:105DB0001D4901225B18BC218900635071688A402B
:105DC000BD21890062501A600122029B11002069E6
:105DD000FEF79EFE29002000FFF78FFF2900060036
:105DE0002000FFF79EFFF0221540303D6A425541EA
:105DF00003003100206901220095FEF763FC0B4B84
:105E00002069E25C039BE15CFEF779FC2069FEF708
:105E100096FC05B0F0BDC04668EA0000E50200004F
:105E2000E70200001844004114440041E60200006B
:105E3000AF2210B504000021520005F053FC2300EE
:105E40000022FC3320005A669A6610BDF7B51D008B
:105E500008AB1B780400009309AB1B781600019374
:105E600000234360FA239B008360104B0F0008332C
:105E700003601430FFF7DCFF20007D30FF30FFF7B8
:105E8000D7FFB9239B002761E654094B009AE554DC
:105E9000084B2000E254019A074BE254BA22E93B36
:105EA000FF3B9200A3541032A354FEBD58EF0000F4
:105EB000E5020000E6020000E70200000300FC33F8
:105EC000586E9B6EC01A01D55F30FF30704710B519
:105ED000040020007D30FF30FFF7F0FF0028F8D1EC
:105EE0002069FEF736FC10BD10B51430FFF7E6FF51
:105EF00010BD0300FC33596E9A6E914205DB5A6E59
:105F0000986E801A5E30FF307047986E5B6EC01AD4
:105F10000138F9E710B57D30FF30FFF7EAFF10BD1B
:105F200070B504000069FEF730FC002805D0206938
:105F3000FEF73BFC2069FEF72DFC2069FEF715FCFF
:105F4000002824D025002069FEF72FFCAF21FC3566
:105F50000600A86F4900013002F0CEFBEB6F9942BA
:105F600003D0AB6FE3181E75A967BA239B00E35CEF
:105F7000FF2B0CD020001430FFF7BBFF092806DCF4
:105F8000BB23BD229B009200E358A2581A602069EF
:105F9000FEF706FC00281DD020007D30FF30FFF703
:105FA0008DFF002825D09E239B00E618B26E736EED
:105FB0009A421BD0BE22AF21B36EB06EE3185200DE
:105FC000013049009D5C02F097FBB1662069E9B29F
:105FD000FEF7EFFB2069FEF7CDFB002805D0206916
:105FE000FEF7CCFB2069FEF7BCFB70BD01256D42BE
:105FF000ECE72069FEF7E9FBECE70000F7B50400E9
:1060000000690E00FEF7CCFB002847D1AF277F00C8
:106010009E239B00E518686EAB6E3900013001933A
:1060200002F06AFB019B994224D1EFF31083DB0756
:106030000ED4204B5B68DB05DA0D002BE8D0103A5C
:1060400053B212060DD49B081B4AC0339B009B58C9
:106050002069FEF7A5FB0028DAD02000FFF760FFDB
:10606000D6E70F221340083B144A9B089B009B185D
:106070001B68EDE7AF21686E4900013002F03CFB80
:10608000AB6E994205D0BE226B6E5200E3189E544F
:1060900069662069FEF795FB0120FEBD20007D307A
:1060A000FF30FFF70BFF0028B0D131002069FEF769
:1060B00080FBF1E700ED00E000E100E01CED00E016
:1060C00070B50500FC35EA6FAB6F04009A421DD035
:1060D000AF21EB6F4900C318E86F1E7D013002F05D
:1060E0000BFBE967BA239B00E35CFF2B0CD020007D
:1060F0001430FFF7FEFE0A2806DDBC23BD229B00FC
:106100009200E358A2581A60300070BD0126764212
:10611000E8E70000F7B50092182216264243544BD8
:1061200007009B189E570191731C52D0514B524C43
:106130001D68002D2BD129004422504805F0D2FAC9
:10614000290044224E4805F0CDFA10224D4B4E490D
:106150001D604E4BCA67BFF34F8FBFF36F8FC021D7
:10616000C12049005A5080001958FF35A9431950E1
:106170001A60474B474A5A80022322781343237000
:106180006378DB09012BFBD001223A4B1A60012313
:106190001D00B54062692A436261019A002A18D045
:1061A000102E1FD1E2781343E370009B042B0BD811
:1061B00018000723A2789A4302F00EFA030C0E107F
:1061C000120005231343A3702D4B019A1A64ADB23C
:1061D000E560F7BD0423F5E70323F3E70223F1E7C6
:1061E0000123EFE738000027002100F0D1FC254B08
:1061F00022499C461B68BA00BB421DD16046013350
:1062000003601F4B8D5001999950072E19DD320004
:106210000123083A92000720904017499B005B1821
:1062200099698143996100990429D0D8080002F046
:10623000D3F90B1215181B008858A842E1D001377A
:10624000D9E70023B200E6E70521986991400A00EA
:1062500002439A61BBE704219869F7E70321986933
:10626000F4E702219869F1E701219869EEE7C04659
:1062700068EA0000481400200018004004140020C0
:10628000C01300204C14002004E100E000E100E015
:10629000000C00400540000070B50024094D0A4B79
:1062A0001B68A34200D870BD084E2A6833691A42A1
:1062B00005D0074BA200D35898472B6833610134AF
:1062C0000435ECE7041400204C14002000180040B2
:1062D000C0130020054B10B51B6C002B00D0984755
:1062E0000123034AD1780B43D37010BDC0130020A3
:1062F0000018004010B5041E05D006F0C5F82100B6
:1063000002F0E4FA0C00200010BD10B50400884231
:1063100003DA081AFFF7EEFF2418200010BD10B5AD
:106320000400006805F0B8F9200010BD10B50400A5
:106330000068002801D005F0AFF900232360A360B6
:10634000636010BD70B504000D000068013106F0F7
:10635000CDF8031E01D0012028C470BD036810B51C
:106360000400002B04D043688B4201D3012010BDF0
:106370002000FFF7E7FF0028F9D0A368002BF5D134
:1063800022681370F2E770B50E00110004001500CA
:10639000FFF7E4FF002804D12000FFF7C7FF20002B
:1063A00070BD31002068A56006F0DCF8F7E7002337
:1063B00070B504000D00036043608360994207D00C
:1063C000080006F0D7F8290002002000FFF7DBFFE5
:1063D000200070BD10B50B000400884205D009688C
:1063E000002904D09A68FFF7CEFF200010BDFFF708
:1063F0009DFFFAE7002310B504000360436083604B
:10640000FFF7E8FF200010BD70B504000D1E09D095
:10641000080006F0AFF8290002002000FFF7B3FFE4
:10642000200070BDFFF782FFFAE770B5002304007B
:1064300015008CB023606360A360961C081C04F0F8
:10644000C3FF76B203AB320000932B0000F074F868
:1064500001002000FFF7D8FF20000CB070BD30B560
:106460000400100000228DB0190010AB1B782260D0
:106470006260A26003AD9A1C52B2009500F05CF815
:1064800001002000FFF7C0FF20000DB030BDF8B5BF
:1064900004000E1E02D100273800F8BD0127002A93
:1064A000FAD08368D5182900FFF758FF0028F2D0EA
:1064B0002368A2683100981806F054F8A560EBE74D
:1064C00010B58A6809680400FFF7E1FF002802D1CF
:1064D0002000FFF72BFF200010BD70B504000D1E3B
:1064E00004D12000FFF722FF200070BD080006F055
:1064F00041F8290002002000FFF7C9FF0028F0D072
:10650000F2E770B50D00002A06D0002904D0846897
:106510009C4202D800230B7070BD013AE41A9442E9
:1065200000D9140001682200C918280006F029F8D3
:1065300000232B55F0E7FEE730B5040087B00D00CF
:10654000064901A805F0EEFF22002B000A9801A9D8
:1065500005F0E8FF0A9807B030BDC0468CEF000098
:10656000FEE70000034B10B51B68002B00D09847D6
:1065700010BDC046501400200F4A1048110010B53D
:106580000F4B824202D0934209D11300824209D1BB
:1065900000F0AEF800F082F8FEE710CB10C18142A7
:1065A000FBD3F3E7074A8B42F2D00021064B9A4215
:1065B000EED202C2FBE7C04600000020900200209D
:1065C00050F40000900200208014002010B500F06C
:1065D00062F8002801D100F053F810BD014B18609B
:1065E0007047C04650140020014B18687047C046E1
:1065F00054140020F7B51348012284461249134C65
:106600008E68636805689B0E134001928868626813
:10661000019F920E3A4067463F6893420ED1BD42B9
:106620000CD186420AD35B19FA254868AD00861B57
:1066300007486B437043000DC018FEBD3D001300BA
:106640000600E3E75414002010E000E000ED00E055
:106650005555000070B5041E11D0FFF7CBFFFA2688
:106660000500B60000F016F8FFF7C4FF401BB0426B
:10667000F8D3FA23013C9B00ED18002CF4D170BD37
:1066800010B5034A13680133136000F0EDFA10BD32
:1066900054140020704700207047704710B500F078
:1066A000D7F804F0C1FFFFF7F8FF0120FFF7D2FF92
:1066B000094C2000FEF790FD2000FEF705FEFBF7D9
:1066C0001FFDFBF7F9FDFFF7E5FF044B002BF8D0AA
:1066D00000E000BFF5E7C046040E00200000000007
:1066E00010B504F0CFFF10BD10B504F0D5FF10BDFC
:1066F0001E2270B546484749436893431C3A1343EA
:10670000436008238C6923438B61434C434B9C8239
:106710009C8A14439C82DC681442FCD00124404AC9
:1067200014701578254203D055786DB2002DF8DB32
:1067300001249460547864B2002CFBDB394C546023
:10674000547864B2002CFBDB8224E401548054783A
:1067500064B2002CFBDB02249C840E34DD682542ED
:10676000FCD0314CDC621024DD682542FCD09D8CCD
:106770002E4C2C439C841024DD682542FCD002243E
:106780009D8C80262C439C844024DD683542FCD0BF
:10679000DD682542F9D01024DD682542FCD00024B4
:1067A0009460547864B2002CFBDB214C5460547824
:1067B00064B2002CFBDB1C6A1E4D2C4080251C6241
:1067C0001C6AAC431C62032393601B4B53605378D9
:1067D0005BB2002BFBDB0023FF240B72174A4B72CA
:1067E0008B72CB72164B1A60164B174A1B681168D6
:1067F0009A065B01C90E2340520F12020B4313434A
:10680000124A1385802342681343436070BDC0461B
:1068100000400041000400400C0600000008004059
:10682000000C004001050100B905FF7D040A0000CD
:1068300000070300FFFCFFFF03060100006CDC0201
:10684000840000202460800020608000004000421E
:10685000FA212E4B10B51868890001F0C7FE80237D
:1068600001385B0498424FD229492A4A4860C02027
:10687000136A00061B021B0A0343136200238B608A
:1068800007330B608021136A09061B021B0A0B43A6
:106890001362FC22204B196A0A431A62FF22196A0A
:1068A00012020A431A62A022196AD2020A431A6229
:1068B0001A4B1C005A7852B2002AFBDB184A5A8045
:1068C000184B1A00597EC9090129FBD0C82189003B
:1068D00099800521D970537EDB09012BFBD0C023A1
:1068E00000205B011361907000F022F863785BB2C6
:1068F000002BFBDB0C4B0D4A6380D379DB09012BAA
:10690000FBD04123537010BDFEE7C0468400002039
:1069100010E000E000ED00E000040040000C00404A
:106920001E4000000040004221400000004800429C
:106930001F4900B50B004A7ED209012AFBD001385D
:106940000A282FD801F048FE1B2E2E2E2E2E062EA2
:106950002E2411001A6917490A400F211A615A782A
:106960008A43110001220A4310E01A6911490A40C2
:106970000F211A615A788A4311000322F3E71A693A
:106980000C490A400F211A615A788A435A7000BD97
:106990001A6908490A400F211A615A788A4311007E
:1069A0000222E0E7F022196912050A43F3E7C04624
:1069B00000400042FFFFFFF010B50400062861D040
:1069C000072861D0052800D80E340121200000F0EE
:1069D000DFF80E2C0DD12F4B1900DA79D209012ADC
:1069E000FBD002201A7882431A70CB79DB09012B85
:1069F000FBD029490B004A7ED209012AFBD018207E
:106A00006043264C0A692418207C1F242040A2439E
:106A100002430A615A7ED209012AFBD00222197868
:106A20000A431A705A7ED209012AFBD00222197B2E
:106A30000A431A731A7ED207FCD501221A765A7EAF
:106A4000D209012AFBD00222197B0A431A731A7E4B
:106A5000D207FCD5588B80B25A7ED209012AFBD0CE
:106A600002211A788A431A705A7ED209012AFBD071
:106A70000B4B1A680B4B1B689A4202D006D9D31AEB
:106A8000D84010BD2C24A0E72D249EE79B1A9840E7
:106A9000F7E7C046004800420040004268EA0000B4
:106AA000880000208C000020182310B508245843CB
:106AB000134A13181C57013412D001245B68825604
:106AC0009C4003290CD808000E49D2015218D31853
:106AD000403301F081FD0210060B02211970546051
:106AE00010BD0621197054609461F9E706211970F0
:106AF00054605461F4E7422119709460F0E7C04695
:106B000068EA0000004400411823F0B50824584307
:106B1000114A13181C5701341BD0012635005F6839
:106B20008356BD400D4ADB019A18906805420BD18F
:106B30000C00601E8441D219403210783440033674
:106B4000A400B04320431070044A9B18002901D1CF
:106B50005D61F0BD9D61FCE768EA00000044004112
:106B6000182310B50824434307490020CA181457B6
:106B7000013408D05B560549DB015B18186A53687D
:106B8000D8400123184010BD68EA000000440041CD
:106B9000182370B5082643432A4AD518AE57340047
:106BA000013607D0072907DC00291DDA01314C42E4
:106BB0004C416442200070BD0B00083BDBB2002456
:106BC000032BF7D8092903D12100FFF76DFFF1E767
:106BD0000A2904D10839FFF767FF0024EAE70024F7
:106BE0000B29E7D10A39F0E76C68012520009B5694
:106BF000C9B262082840DB012C4211D012480E3580
:106C00001B189A1830321078090128400143C9B284
:106C1000117041221B19403319780A431A70DCE7BE
:106C20000F26094D5B199A18303215781B19B54398
:106C30002943117041224033197804000A431A7025
:106C4000B8E7C04668EA000000440041014B186004
:106C50007047C046900000200122024B52421A6049
:106C60007047C04690000020164A10B51368591CA2
:106C700027D0013B1360002B23D172B68122124B27
:106C800092000433934213D3104A01211000147D63
:106C90000C42FCD02021148BFF319B085B00214368
:106CA0001183D3610A4B13800123027D1A42FCD069
:106CB000BFF34F8F074B084ADA60BFF34F8FC046D0
:106CC000FDE710BD900000200020000000400041C2
:106CD00002A5FFFF00ED00E00400FA0570B50E000C
:106CE00000254468002C0BD02368310020005B682D
:106CF0009847002802DBE4682D18F3E701256D4270
:106D0000280070BD70B50D004468002C08D02368C1
:106D1000290020009B689847002802D1E468F4E726
:106D2000200070BD70B50D004468002C08D02368A9
:106D3000290020001B689847002802D1E468F4E786
:106D4000200070BD064A0123116810B50C000548EB
:106D50001C40194203D1044944600180136010BDF6
:106D6000581400205C1400200204000070B50400D8
:106D7000012320CC00212A782000134380222B708D
:106D8000520004F0AFFCAB78DB07FCD4AB789B0778
:106D9000F9D46C6270BD00001F22144B70B51B68E3
:106DA000590B9C0C9B0111405B0F22401F2900D105
:106DB0001A391F2A00D1023A072B00D1043B1F25A4
:106DC00000688E01048D0A492A4021403143018523
:106DD000018D14000A00AA4322430285028D190383
:106DE000044B13400B43038570BDC04624608000F4
:106DF0003FF8FFFFFF8FFFFF030010B508001900E9
:106E000004F0EEFB10BD0000F8B54E46574645466F
:106E1000DE46A44BE0B54E00804689468A46760899
:106E20009E420CDDA04B9E4200DDA3E000D19EE01F
:106E30005346002B00DCE1E09C4B9D4AA2E09D4BB9
:106E40009E4200DDB4E09C4B9E4200DCA2E00123A8
:106E50005B429B4642464B464046494603F00CFC8B
:106E600002000B0006000F0003F006FC04000D00FA
:106E7000924A934B03F000FC924A934B02F08CFC35
:106E800022002B0003F0F8FB904A914B02F084FCA7
:106E900022002B0003F0F0FB8E4A8F4B02F07CFCAB
:106EA00022002B0003F0E8FB8C4A8D4B02F074FCAF
:106EB00022002B0003F0E0FB8A4A8B4B02F06CFCB3
:106EC00032003B0003F0D8FB884A894B06000F00D4
:106ED0002000290003F0D0FB864A874B03F038FEE0
:106EE00022002B0003F0C8FB844A854B03F030FEE0
:106EF00022002B0003F0C0FB824A834B03F028FEE4
:106F000022002B0003F0B8FB804A814B03F020FEE7
:106F100022002B0003F0B0FB0B00594602000131A8
:106F200000D16EE059463000CC00390002F034FC4C
:106F300042464B4603F0A0FB764D774B2D191C19AA
:106F40002268636803F004FE42464B4603F000FEED
:106F500002000B002868696803F0FAFD0300504640
:106F60000A0000280EDA802212068A180AE0002899
:106F700000D15DE742464B464046494602F00CFCD4
:106F800003000A00180011003CBC90469946A24636
:106F9000AB46F8BD614A624B02F0FEFB0022614B3A
:106FA00001F0C4FC002800D151E743464A46E9E716
:106FB00000F0C6F85C4B04000D009E4232DC5B4BD7
:106FC0009E4258DC02000B0002F0E6FB0022554B0B
:106FD00003F0BEFD802306000F000022DB05200029
:106FE000290002F0D9FB0B0002003900300002F04A
:106FF0003DFF0023804689469B462BE72B4B4C4A9E
:10700000C0E73000390002F0C7FB42464B4603F0B0
:1070100033FB02000B004046494603F099FD030094
:107020000A00AFE7434B9E421ADC0022424B03F0BA
:107030008FFD002206000F003F4B2000290003F0C7
:107040001BFB0022374B02F0A7FB0B0002003900AC
:10705000300002F00BFF0223804689469B46F9E68A
:107060000B0002003549002002F000FF0323804698
:1070700089469B46EEE600222A4B03F069FD00227A
:1070800006000F00274B2000290002F085FB0B00B3
:1070900002003900300002F0E9FE012380468946F3
:1070A0009B46D7E6FFFF0F440000F07F182D4454A5
:1070B000FB21F93FFFFFDB3FFFFF1F3E11DA22E319
:1070C0003AAD903FEB0D76244B7BA93F513DD0A0CC
:1070D000660DB13F6E204CC5CD45B73FFF83009292
:1070E0002449C23F0D5555555555D53F2F6C6A2C37
:1070F00044B4A2BF9AFDDE522DDEAD3F6D9A74AF4F
:10710000F2B0B33F711623FEC671BC3FC4EB989931
:107110009999C93F98EF0000B8EF00009C7500886E
:107120003CE4377E0000F03FFFFFF23FFFFFE53F0A
:10713000FB21F9BFFF7F03400000F83F0000F0BFD4
:107140004B0059087047C046F0B5A123C64645001C
:10715000060000B5041C6D08DB059D420BDBFF2318
:10716000DB059D4200DD78E0002800DCA6E07348E6
:1071700004BC9046F0BD724B9D4200DD80E0C4230C
:107180009B059D426DDB01235B429846211C201C20
:1071900001F09EFF011C071C01F09AFF6949051CC4
:1071A00001F096FF684901F02DFC291C01F090FFC9
:1071B000664901F027FC291C01F08AFF644901F0AF
:1071C00021FC291C01F084FF624901F01BFC291CF1
:1071D00001F07EFF604901F015FC391C01F078FFD9
:1071E0005E49071C281C01F073FF5D4902F08AF814
:1071F000291C01F06DFF5B4902F084F8291C01F0A5
:1072000067FF594902F07EF8291C01F061FF5749D8
:1072100002F078F8291C01F05BFF4346011C0133A2
:107220004ED04346381C9D0001F0ECFB211C01F0C0
:107230004FFF4F4BE95802F065F8211C02F062F84D
:107240004C4B011CE85802F05DF8002E00DB8FE784
:1072500080231B069C4660448AE7011C01F0D2FB98
:1072600086E7454901F0CEFBFE21890501F098FB38
:107270000300201C002B00D07AE7013B984685E7ED
:1072800000F086F83D4B041C9D4224DC3C4B9D42A3
:1072900042DC011C01F0B6FBFE21890502F032F848
:1072A0008021051CC905201C01F0ACFB011C281C19
:1072B00001F044FD0023041C984667E7314857E776
:1072C000381C01F09FFB211C01F002FF011C201C57
:1072D00002F018F84CE72C4B9D4215DCFF21890584
:1072E00002F010F8FF21051C8905201C01F0F0FEBA
:1072F000FE21890501F086FB011C281C01F01EFD02
:107300000223041C984641E7011C204801F016FDA9
:107310000323041C984639E7FE21890501F0F2FF9A
:10732000FE21051C8905201C01F06CFB011C281C9A
:1073300001F004FD0123041C984627E7DB0FC93F39
:10734000FFFFDF3ED769853C59DA4B3D356B883D01
:107350006E2EBA3D2549123EABAAAA3E21A215BD0A
:107360006BF16E3D95879D3D388EE33DCDCC4C3E17
:10737000E8EF0000D8EF0000CAF24971FFFF973F25
:10738000FFFF2F3FDB0FC9BFFFFF1B40000080BF87
:10739000400040087047C046F0B5DE4657464E46AE
:1073A0004546E0B58DB01D0006000F00140000F04A
:1073B000B1F9D04B009001911B785BB29B46013331
:1073C0003ED022002B002000290003F053FF81460D
:1073D000002835D132003B003000390003F04AFF6D
:1073E00000228046002800D0A1E0002330003900B0
:1073F00001F082FA00282CD000220023200029006E
:1074000001F07AFA814600285FD002AB9A46012348
:1074100052460293B84B5360534642461C615D612D
:107420001A62002452469E60DF6000239361D4619B
:107430005B46002B00D19AE00023B04C00930194EE
:10744000009801990DB03CBC90469946A246AB46C7
:10745000F0BD0098019900F0A1FF8046002800D1FE
:1074600099E0009801990022002301F045FA0028D4
:10747000E6D03000390000F091FF0028E0D0200075
:10748000290000F08BFF0028DAD002AB9A460423D3
:1074900052460293984B14615561536000230024B7
:1074A000136200239361D461924B9660D7601B787E
:1074B0005BB2022B04D0504600F07AFF00285BD16B
:1074C00004F09CF82223036056E02000290000F01D
:1074D00065FF0028B4D0002200232000290001F01D
:1074E00011FA0028ACD002AB9A460123524602930F
:1074F000814B536053464A469E60DF601C615D616C
:107500001A627C4B1B785BB2002B00D083E05246A2
:10751000002300249361D461504600F049FF002805
:1075200000D180E053461B6A002B2ED028E00023B8
:107530002000290001F0E0F9002800D180E702AB2B
:107540009A460123524602936B4B002053605346E8
:107550004A466A499E60DF601C615D619861D9613D
:107560001A625B4600900191022B00D168E75046F9
:1075700000F01EFF00285BD053461B6A002B04D08E
:1075800004F03CF853461B6A03605346DC699B6970
:107590000093019454E73000390000F0FFFE00280A
:1075A00000D15EE72000290000F0F8FE002800D19D
:1075B00057E7009801990B00020003F05BFE02AB55
:1075C0009A46002878D10323524602934A4B96608C
:1075D000D7605360474B146155611B7810625BB2F2
:1075E0009846002B29D1E0225146454B12068A616C
:1075F000CB61300000220023390001F083F900281C
:107600002CD1504600F0D4FE00288BD103F0F6FFB9
:107610002223036086E7002052463A499061D161F7
:10762000022B00D078E703F0E9FF2123036079E71C
:1076300003F0E4FF212303609EE700225146324B12
:1076400030008A61CB6100220023390001F05AF931
:1076500000281ED14346022BD8D0D2E700222B4B64
:107660002000290003F008F804000D0000F0A8FE37
:1076700022002B0001F040F9002805D1E022244B24
:10768000120651468A61CB611A4B1B785BB2984651
:10769000E0E700221D4B2000290002F0EDFF04006E
:1076A0000D0000F08DFE22002B0001F025F90028CE
:1076B000EAD10022134BE4E70123524602930E4B1A
:1076C0005360534642461C615D6100249E60DF604A
:1076D0001A62084B1C57002C00D118E70023002227
:1076E0001900100002F0C2FB53469861D961022CC8
:1076F00099D011E794000020F8EF00000000F03F5F
:10770000FFFFEF470000F0FF0000F07F0000E03FC8
:10771000FFFFEFC7F0B5454657464E46DE461C0014
:107720001300E0B5650093B06D0802930394070061
:107730000E00A0462B4335D07A4B4C008A4681463A
:1077400064089C4229DC3AD09D4226DC754B9D4260
:1077500021D000239B465346002B3ADB002A56D10A
:10776000704B9D4200D1A4E06F4B9D4200D1B6E02A
:107770008023DB05984501D100F08AFC6B4B9845CE
:1077800045D15346002B42DB3800310000F02EFD7E
:10779000009001910AE0002ADBD0654B9C466444CE
:1077A000274310D10023604C009301940098019965
:1077B00013B03CBC90469946A246AB46F0BD0028AB
:1077C00001D1A542C2DD5B4800F0F4FD00900191BB
:1077D000ECE7594B9D4200DD92E0584B9D4214DD91
:1077E00057492B158C466344142B01DC00F061FCD7
:1077F0003421CB1A0299D94008009840904204D114
:107800000123194001335B1A9B46002AACD0380093
:107810003100FFF795FC4B4600900191002B29D1D8
:10782000002C04D0404AB3009B08934222D1434627
:10783000002B07DA009A019B00203B4902F016FB5F
:10784000009001915346002BB0DA394B9C465B46C1
:1078500064441C4301D000F058FC009801990200D8
:107860000B0003F075F902000B0002F0FFFA009024
:1078700001919BE7F30F013B99465B464A46134350
:107880004BD0304B9D4265DD2F4B9D4200DC9BE38E
:107890002A4B9C4201DC00F005FC4346002B19DD1D
:1078A0002A4A2B4B1000190002F0E6FE00900191CD
:1078B0007CE71F4BE3181F4300D173E71F4B9C422B
:1078C00000DC72E3029B039C009301944346002B6F
:1078D00000DB6BE7002300240093019466E732008D
:1078E0003900434600910192002B00DB5EE7330034
:1078F0003A0000200C4902F0B9FA0090019155E7D6
:1079000002239B462AE738003100FFF719FC4B465B
:1079100000900191002B00D182E73A00330038003B
:1079200031009EE70000F07F0000F03F0000E03FE4
:10793000000010C0FCEF0000FFFF3F43FFFFEF3FE0
:1079400001FCFFFF0000E0410000F0439C7500884F
:107950003CE4377EEA4B002233420AD10098019979
:107960000022E84B02F088FE35220C0000900191C5
:107970005242E54923158C4663449A462403E34B5F
:10798000240B23439846E24B92449C420ADDE14B90
:107990009C4201DC00F00CFC01239C46DE4BE244DF
:1079A0009C46E044002300240A930B941093119406
:1079B00000230F930023D54C069307940098019958
:1079C000069A079B4146040003F0C2F8069A079BFB
:1079D000454606000F00200041460894099501F035
:1079E000DBFE02000B000020C84902F03FFA030052
:1079F0000C0002000C930D9430000B00390002F0D3
:107A00003BFE00224346040010005A1080239B05D1
:107A1000134380220D00120394460494059500241C
:107A20000F9A63449D182B0022000090019102F0F0
:107A300023FE02000B003000390003F089F8069A9B
:107A4000079B06000F002000290003F081F80200C8
:107A50000B000898099903F07BF8009A019B02F04B
:107A60000BFE02000B003000390003F071F80C9A95
:107A70000D9B02F001FE049C059D069007912200DB
:107A80002B002000290002F0F7FD06000F00A34A9A
:107A9000A34B02F0F1FDA34AA34B01F07DFE32009F
:107AA0003B0002F0E9FDA14AA14B01F075FE320056
:107AB0003B0002F0E1FD9F4A9F4B01F06DFE32005A
:107AC0003B0002F0D9FD9D4A9D4B01F065FE32005E
:107AD0003B0002F0D1FD9B4A9B4B01F05DFE320062
