:102000000080002001A30000C19F0000E9A20000A1
:1020100000000000000000000000000000000000C0
:10202000000000000000000000000000E9A2000025
:102030000000000000000000E9A2000055A300001D
:10204000E9A20000E9A20000E9A20000E9A2000064
:10205000859F0000E9A20000A1500000EDA2000051
:10206000E9A20000FD7F0000E9A20000E9A2000053
:10207000314C0000E9A200000D800000E9A2000040
:10208000E9A20000E9A200009D610000E9A20000B1
:1020900000000000E9A20000E9A20000E9A200009F
:1020A000E9A20000E9A20000E9A20000E9A2000004
:1020B0000000000010B5064C2378002B07D1054B1B
:1020C000002B02D0044800E000BF0123237010BDA4
:1020D000F00200200000000014560100044B10B56F
:1020E000002B03D00349044800E000BF10BDC046E8
:1020F00000000000F40200201456010070477047F1
:10210000F0B50025604C85B02000604901F04DFB22
:102110000221200001F0EEFD5D4B5E4923612000AD
:10212000656105F0E5FF5C4B5C492361200005F02B
:10213000DFFF5B4B012718680DF036F900970200AE
:102140000B00200006F028F9564B57492361200068
:1021500005F0CEFF554B02AE18680DF025F900973B
:1021600002000B00200006F017F9514B5149236182
:102170002000656105F0BCFF4F4B18680DF014F9A5
:10218000009702000B00200006F006F94B4B4C496B
:1021900023612000656105F0ABFF4A4B18680DF024
:1021A00003F90B00022102000091200006F0F4F870
:1021B00080232A00C3212000009502F096F8802396
:1021C0002A0069212000009502F08FF8942319223B
:1021D0005B0029002000009502F04AF830003A49DF
:1021E00005F0ECFD3900200001F084FD374B384943
:1021F00023612000656105F07BFF364B20002361E1
:10220000354905F080FFF378092B03D820003349C6
:1022100005F079FF0A22F178200006F004F8304F2B
:102220002000390005F06FFF3379092B03D8200017
:102230002A4905F068FF31790A22200005F0F3FFF2
:102240002000284905F05FFF274EF378092B03D8BB
:102250002000224905F057FF244D0A22E97820008A
:1022600005F0E1FF3900200005F04DFF3379092B1F
:1022700003D82000194905F046FF0A2220002979D9
:1022800005F0D1FF05B0F0BD40030020FFFF0000C6
:1022900005000500983D010005001E00A63D010057
:1022A000D003002005003700B13D0100D403002019
:1022B00005005000BC3D0100E4030020050069005A
:1022C000C73D0100CC03002080040020050004006D
:1022D000D23D010005000E00DF3D0100E23D01009E
:1022E000DD3D0100E43D0100FC030020DC03002093
:1022F000F0B5061C89B0081C0F1C0DF055F8324AC9
:10230000324B04000D000BF037FA0022304B09F07D
:1023100033F8304A304B0CF09FF908F065FD00901F
:102320000191391C301C0AF05DFB08F0FDFE2B4AC0
:102330002B4B071C290020000CF0FAFB08F054FD81
:10234000002202900391274B2000290009F014F885
:10235000254A06900791254B200029000CF07CF9B6
:1023600008F042FD04900591301C0DF01DF8009A14
:10237000019B0CF071F90400381C0D000DF014F8ED
:1023800002000B00200029000BF0F6F9029A039BD3
:102390000CF0CEFB164A04000D0006980799154B69
:1023A0000CF05AF9049A059B0CF056F902000B0048
:1023B000200029000BF0E0F90F4A104B0CF0B8FB9D
:1023C0000DF03AF809B0F0BD2F3196E997A0204002
:1023D0000000E03FAF415F7AFB73C33FEB5564748D
:1023E00040D2FA3F0000F83F750305DEC9A7973FCA
:1023F00001B8401FB80C703F3CA583F57FBE12406A
:1024000073B54E4C4E49200001F0CFF94D4B2000E2
:102410002361022101F06EFC0023200063614A4920
:1024200005F066FE494B20002361012101F062FCAA
:102430002000474905F05CFEFA23464DDB00297871
:102440000A22C918200005F0D4FE434E20003100B6
:1024500005F04EFE0A226978200005F0E4FE310006
:10246000200005F045FE0A22A978200005F0DBFED9
:1024700020003A4905F03CFE0A22E978200005F0E8
:10248000D2FE2000364905F033FE0A2229792000C9
:1024900005F0C9FE334B20002361022101F02AFC24
:1024A0002000314905F024FE304B022518680CF05D
:1024B0007BFF2F4A2F4B0CF0CFF800222E4B0BF056
:1024C0005BF9009502000B00200005F065FF2B4E24
:1024D0002000310005F00CFE294B18680CF064FF59
:1024E000234A244B0CF0B8F80022234B0BF044F99C
:1024F000009502000B00200005F04EFF214B20004C
:102500002361214905F0F4FD204B18680CF04CFFC5
:10251000009502000B00200005F03EFF3100200076
:1025200005F0E6FD1A4B18680CF03EFF009502001E
:102530000B00200005F030FF73BDC04640030020B3
:10254000FFFF000005000500E93D010005001E0039
:10255000F13D010016030020E03D01000F400100A5
:10256000DD3D010005002D00F83D0100C8030020FD
:10257000CDCCCCCCCCCCFC3F00004040023E010096
:10258000C403002005004600043E01000C040020A6
:102590000804002070B51D4C05001D49200001F005
:1025A00004F91C4B02212000236101F0A3FB00234E
:1025B00019496361200005F09BFD2900200005F00A
:1025C0009BFD164B01212361200001F093FB144970
:1025D000200005F08DFD134B20001349236105F009
:1025E00087FDFA20400007F0F9FE104805F0F9FCDD
:1025F000002802D10E4B2361F7E70E49200005F0B9
:1026000077FD0D4807F0EAFE70BDC046400300208C
:10261000FFFF0000050005000E3E01000500370029
:10262000163E010005004600433E01003403002031
:10263000050064007B3E01008813000010B52D20CA
:1026400008F0C4F80BF05CF8011C0AF0CBF90CF0B0
:10265000ABFE054A054B0BF0FFFF0CF0EDFEEA2147
:1026600089050AF025FD10BD6666666666660A4045
:10267000F0B50025914C8BB0071C049120009049C7
:10268000079201F092F80221200001F033FB8D4BFC
:102690008D4923612000656105F02AFD8B4B8C4933
:1026A0002361200005F024FD381C0CF07DFE01277D
:1026B00002000B00029003910097200005F06CFED1
:1026C000844E2000310005F013FD834B18680CF098
:1026D0006BFE009702000B00200005F05DFE7F4BB3
:1026E0007F492361200005F003FD04980CF05CFE97
:1026F000009702000B00200005F04EFE3100200084
:1027000005F0F6FC774B18680CF04EFE00970200BF
:102710000B00200005F040FE734B7449236120003C
:10272000656105F0E5FC07980CF03EFE704A714BC0
:102730000BF092FF704A04900591029803996F4B39
:102740000BF08AFF02000B00049805990BF014F8B7
:10275000009702000B00200005F01EFE3100200053
:1027600005F0C6FC664B18680CF01EFE00970200D0
:102770000B00200005F010FE624B6349236120002E
:10278000656105F0B5FCFFF759FF0CF00DFE0B007D
:10279000022102000091200005F0FEFD3100200022
:1027A00005F0A6FC594B08AE18680CF0FDFD0B00B7
:1027B000022102000091200005F0EEFD544B554926
:1027C00023612000656105F093FC5349200005F06A
:1027D0008FFC5249200005F08BFC514B0A221968EE
:1027E000200005F006FD99232A00C3212000009552
:1027F00001F07BFD99232A0069212000009501F05A
:1028000074FD942319225B0029002000009501F03B
:102810002FFD3000434905F0D1FA3900200001F0C6
:1028200069FA414B414923612000656105F060FC74
:102830003F4B200023613F4905F065FCF378092BED
:1028400003D820003C4905F05EFC0A22F178200004
:1028500005F0E9FC394F2000390005F054FC3379CC
:10286000092B03D82000344905F04DFC0A223179A8
:10287000200005F0D8FC2000314905F044FC314D22
:10288000EB78092B03D820002B4905F03CFC0A22E9
:10289000E978200005F0C7FC3900200005F033FC82
:1028A0002B79092B03D82000234905F02CFC0A22A0
:1028B0002000297905F0B7FC0BB0F0BD40030020E3
:1028C000FFFF000005000500B63E010005001E00E8
:1028D000CF3E01000C400100F0030020050037004E
:1028E000DA3E0100F403002005005000E53E01003F
:1028F000666666666666E63F333333333333D33F0B
:102900000404002005006900F03E0100EC030020F3
:1029100005008200FB3E0100063F01000B40010064
:10292000F80300208004002005000400D23D0100CF
:1029300005000E00DF3D0100E23D0100DD3D01002C
:10294000E43D0100FC030020E121F0B56F4D93B0A0
:102950004902280006F074F86D4805F023FB6D4825
:1029600005F020FB6C4805F01DFB01210D2008F04F
:102970008BF86A4B0D20196807F0A0FF01210F208A
:1029800008F082F8664B674A1B680F209B00995835
:1029900007F094FF0121042008F076F800210420BC
:1029A00008F0A2F80121042008F09EF80A2007F0A0
:1029B00015FD0021042008F097F80A2007F00EFD0D
:1029C000594C200003F0C0FE584A2000584903F03B
:1029D000D9FC2000574903F039FF0321564802F083
:1029E000A5F9A022554C022352002000AA2102F092
:1029F000ABFD2000032102F047FD2000504900F00C
:102A0000D4FE642007F0EAFC4E4F4F4C3900200002
:102A100002F03CFF00280ED14C4E2800310005F09A
:102A200083FB310009A807F09BFB09A8FFF7B2FD63
:102A300009A807F0EAFA0021200002F06FFF002148
:102A4000200002F06DFF1021414803F0E5FF00284F
:102A50000DD14049280005F067FB3F4909A807F060
:102A60007FFB09A8FFF796FD09A807F0CEFA3B4EB9
:102A70003900300005F08CF900280DD138492800C4
:102A800005F052FB374909A807F06AFB09A8FFF7D0
:102A900081FD09A807F0B9FA300005F0D5F9310039
:102AA00009A805F08BF909A906222F480CF008FEA9
:102AB00009AA6946200002F05BFF0E9C2B4B05998A
:102AC0001C602B4B201C1C60FFF712FC0CF06CFCF4
:102AD000284A294B0BF0C0FD0022284B0AF04CFE7F
:102AE0000CF0AAFC051C201C0CF05EFC214A224BB9
:102AF0000BF0B2FD214B00220AF03EFE0CF09CFCD4
:102B000005992A1CFFF7B4FD13B0F0BDD0110020C9
:102B1000340300201C030020280300201C00002098
:102B2000200000202400002014040020CDCC4C3DC7
:102B300000C0644408000020DC06002040030020A0
:102B4000FFFF0000A8040020840400200B3F0100C8
:102B500040090020273F01003A3F01008004002087
:102B6000583F01006A3F010016030020C8030020FF
:102B7000C4030020CDCCCCCCCCCCFC3F00004040EA
:102B8000F0B58FB0051C0F1C02A8D049161C07F029
:102B900084FA6846CE4905F011F96B461978FA2394
:102BA000DB00C91802A807F026FBCA4C02A82100C6
:102BB00007F0F9FA6B4602A8597807F00CFB2100E0
:102BC00002A807F0F0FA6B4602A8997807F003FB19
:102BD000C14902A807F0E7FA6B46DB78092B03D856
:102BE000BE4902A807F0DFFA6B4602A8D97807F0C1
:102BF000F2FABB4902A807F0D6FA6B461B79092BFB
:102C000003D8B64902A807F0CEFA6B4602A8197994
:102C100007F0E1FAB24902A807F0C5FA6B465B7902
:102C2000092B03D8AD4902A807F0BDFA6B4602A8EC
:102C3000597907F0D0FAAB4C02A8210007F0B3FA9B
:102C4000291C02A807F0E8FA210002A807F0ABFA55
:102C5000391C02A807F0E0FA210002A807F0A3FA45
:102C6000301C0CF0A1FBA04AA04B0BF0F5FC0600B9
:102C7000281C0F000CF098FB9D4A9E4B0BF0ECFCBF
:102C800002000B00300039000AF076FD02000B0054
:102C900002A807F0D7FA210002A807F084FAFFF78C
:102CA000CDFC011C02A807F0B7FA210002A807F02A
:102CB0007AFAFA23904DDB00297802A8C91807F0A8
:102CC0009AFA844E02A8310007F06DFA697802A8DA
:102CD00007F081FA310002A807F065FAA97802A886
:102CE00007F079FA7C4F02A8390007F05CFAEB781C
:102CF000092B03D8794902A807F055FAE97802A808
:102D000007F069FA764902A807F04DFA2B79092BEA
:102D100003D8724902A807F046FA297902A807F0F9
:102D20005AFA6F4902A807F03EFA6B79092B03D8CB
:102D30006A4902A807F037FA697902A807F04BFA46
:102D4000210002A807F02FFA6C4B02A8196807F0BF
:102D500063FA210002A807F026FA694B02A8196855
:102D600007F05AFA210002A807F01DFA654B02A8E5
:102D7000196807F051FA210002A807F014FA624B13
:102D800002A8196807F048FA210002A807F00BFA18
:102D90005E4B02A8196807F02EFA210002A807F07E
:102DA00002FAFA235A4DDB00297802A8C91807F065
:102DB00022FA310002A807F0F6F9697802A807F0B4
:102DC0000AFA310002A807F0EEF9A97802A807F084
:102DD00002FA390002A807F0E6F9EB78092B03D8CC
:102DE0003E4902A807F0DFF9E97802A807F0F3F9F5
:102DF0003B4E02A8310007F0D6F92B79092B03D8F6
:102E0000364902A807F0CFF9297902A807F0E3F9BB
:102E1000310002A807F0C7F96B79092B03D82F49B5
:102E200002A807F0C0F9697902A807F0D4F92100D7
:102E300002A807F0B8F9374B02A8196807F0ECF9B7
:102E4000210002A807F0AFF9334B02A8196807F078
:102E5000E3F9210002A807F0A6F9304B02A819688F
:102E600007F0DAF9210002A807F09DF92C4B02A81F
:102E7000196807F0D1F9210002A807F094F9294B4D
:102E800002A8196807F0B7F927491723274A05A8A8
:102E900003F056FE05A803F0A8FD254C254900289F
:102EA00007D002A905A805F049F905A803F090FD8F
:102EB0002149200005F038F902A9200005F03EF96B
:102EC00002A807F0A2F80FB0F0BDC04606500100FE
:102ED00080040020E03D01000F400100E23D0100C0
:102EE000DD3D0100843F0100666666666666E63F7A
:102EF000333333333333D33FFC030020F00300205C
:102F0000F403002004040020EC030020F803002058
:102F1000DC030020D0030020D4030020E4030020C1
:102F2000CC030020D803002040090020863F010088
:102F3000D0110020A53F01008E3F0100F0B5002513
:102F400006002C0087B04C4903A807F0A6F8B76824
:102F50000A223900494805F050F90195BD4268DA66
:102F60002900300007F08DF9202813D02900300007
:102F700007F087F9010003A807F022F97B1EAB4296
:102F800006D1012C44D103A807F092F93C4B1860FC
:102F90000135E3E7019B0133581E0193032807D84D
:102FA00009F00AFB020B1A2803A807F06EF90400C7
:102FB000314903A807F0B2F8E0E7012C05D103A8D6
:102FC00007F076F92F4B1860F2E7022CF0D103A836
:102FD00007F06EF92C4BF6E7012C04D103A807F09B
:102FE00067F92A4BEFE7022CE2D103A807F060F95A
:102FF000274BE8E7012C04D103A807F059F9254B2A
:10300000E1E7022CD4D103A807F052F9224BDAE70A
:10301000022C04D103A807F04BF9204BB7E7032C8F
:10302000B6D103A807F03AF909F0BEFC1C4B1860B2
:10303000AEE7012C11D1134B1A4F1D681A4B1B4ED2
:103040001A78002A0FD13D6035601C703168281C49
:1030500009F082FC002800D0356003A806F0D5FFF7
:10306000200007B0F0BD3968281C09F089FC002851
:10307000ECD03D60EAE7C04606500100D0110020C8
:10308000EC030020F0030020D00300200404002003
:10309000E4030020F4030020D4030020CC0300202C
:1030A0000C03002008040020100400200C04002061
:1030B000F0B55B498FB05B4805F04AF85A4C5B4964
:1030C000200000F072FB0221200000F013FE00231C
:1030D000574E584963612000266102AF05F008F899
:1030E0003A00554B23CB23C20025544905A806F0CE
:1030F000D4FF534908A806F0D0FF52490BA806F0A8
:10310000CCFF01966B1C1DD0022D00DD0025002692
:10311000B300FB5E052263822282B54214D1434B89
:103120000C217143636105AB20005918013604F08E
:10313000E3FF032EECD1444804F053FF002805D0F0
:10314000013DDFE70225E2E7404BE9E7404804F0B4
:1031500048FF002801D00135D4E73E4E300004F08E
:1031600040FF0028E7D0FA2007F038F9300004F0DB
:103170001FFF002828D020002C4900F016FB022158
:10318000200000F0B7FD0C21019B694323612F4B08
:103190002000636105AB591804F0AEFF0327002D32
:1031A000FDD12D4B2D492361200004F0ACFF2C4EA6
:1031B0000A222000316805F01CF8264804F011FFAF
:1031C00000280CD0FFF774FF0BA806F01EFF08A81C
:1031D00006F01BFF05A806F018FF0FB0F0BD1A4857
:1031E00004F0FFFE3368DA0F9F426A41D2B2002A30
:1031F00003D0002801D001333360154804F0F1FEFC
:10320000174A002804D01368002B01DD013B13602E
:103210001368144A9B000F20995807F04FFBC0E732
:10322000C13F0100D011002040030020FFFF00003B
:1032300005000500D43F010060400100E73F0100A8
:10324000FC3F010011400100340300200000FFFF9B
:103250001C03002028030020050023002640010055
:10326000200000202400002070B58B4C9CB0200072
:1032700003F04CF9002842D06A463C230DADD370D0
:1032800029002000033202F0C0FF002837D06B462F
:10329000DB78002B00D1FAE00022290001A8EA54D3
:1032A00006F0FBFE01A904A806F02EFF04A8FFF714
:1032B00045FE050004A806F0A8FE784E012D00D0BA
:1032C000C9E0774904A804F079FD062204A97548ED
:1032D0000CF0F6F9200002F02FFC3060724C01A9CE
:1032E000200004F02BFF7149200004F00CFF0A229B
:1032F0002000316804F081FF01A806F086FE07F087
:1033000037F86B4E3368C01A6A4B98423AD904A911
:1033100069480DAA02F02CFB129C684D211C2868FC
:1033200009F01AFB002800D02C60654D211C28688C
:1033300009F026FB002800D02C600999201CFEF71C
:10334000D7FF0CF031F85F4A5F4B0BF085F9002294
:103350005E4B0AF011FA0CF06FF8051C201C0CF003
:1033600023F8584A584B0BF077F9584B00220AF0D3
:1033700003FA0CF061F809992A1CFFF779F906F0B5
:10338000F7FF306006F0F4FF514D2B68C01A514B27
:1033900098422AD90DAA04A9474802F0E9FA129ED8
:1033A0000999301CFEF7A4FF0BF0FEFF454A464B7F
:1033B0000BF052F90022454B0AF0DEF90CF03CF814
:1033C000041C301C0BF0F0FF3E4A3F4B0BF044F95D
:1033D0003E4B00220AF0D0F90CF02EF80999221C7D
:1033E000FFF7CEFB06F0C4FF28603B4804F0F9FD70
:1033F000002805D0FFF704F8384B186806F0EEFFF8
:10340000374804F0EEFD002805D03649264804F080
:103410009FFEFFF74DFE344804F0E3FD002805D081
:10342000FEF76EFE2D4B186806F0D8FF06F0A0FFE1
:103430002E4C2368C01A2E4B1B68984227D32D4868
:103440002D4A036811685918002916DC00215B42D7
:103450001160036014E0022D00D03FE7104904A87A
:1034600004F0ACFC062204A924480CF029F9200041
:1034700002F062FB224B186030E7FE2909DC116084
:103480000D20116807F01AFA06F072FF20601CB0D8
:1034900070BDFF21DBE7C04614040020F8030020C4
:1034A00080040020FC030020D011002033400100E4
:1034B000A00400208713000084040020C40300201F
:1034C000C8030020CDCCCCCCCCCCFC3F000040408D
:1034D000E80300205FEA000034030020040000201D
:1034E000280300203A4001001C030020A40400200F
:1034F00038000020180000201C000020DC03002001
:10350000D803002010B5040006F0F8FF200010BD1D
:1035100070B5204C2048210004F0CEFC21001F484B
:1035200004F0CAFC21001E4804F0C6FC21001D481E
:1035300004F0C2FC06211C4804F02CFD05211B48A8
:1035400004F028FD0E211A4804F024FD194D28002E
:1035500002F06CF9184C28002200184907F03CFCD6
:10356000174D0C230A220B21280001F0D5FF220061
:103570002800144907F030FC134D144B2800032297
:10358000082102F079FE28002200114907F024FCEE
:1035900070BDC04680436D3816030020FC03002038
:1035A000DC03002010030020340300201C03002053
:1035B0002803002084040020000000203958000067
:1035C00040030020FD200000140400201C090020FE
:1035D000FF200000002070477047F0B515000C0078
:1035E0001E0089B00EAB00229B5E0FAA12880190CC
:1035F00005925A1BD11752184A400292321BD1171A
:1036000052184A4003920399029A8A4205DD320019
:103610001E00130022002C001500B44205DD2A0014
:103620001D001300220034001600321B91B20691D7
:10363000591BC8170918414012B20791D10F8A18B7
:1036400052100092012204929D4202DB01235B4250
:103650000493B44222DC019B039A1B689B691F0000
:10366000029B934216DD22002900059B0198B84772
:10367000009B079A9A1A11B293B20091120406D5D0
:10368000049AAD18069A2DB2D3181BB200930134D8
:1036900024B2DEE72A002100059BE7E709B0F0BD70
:1036A000704710B504682469A04710BD37B506AC53
:1036B000258804680095A46BA04737BD37B506ACD4
:1036C000258804680095E46BA04737BD73B506AC48
:1036D0000025655F07AC2688046801960095246C78
:1036E000A04773BDF0B5160004000D0085B003932C
:1036F0000AAB1F8803685B699847039B2268013BFC
:103700009B191BB2009301972B0029002000976A98
:103710003200B84723682000DB6A984705B0F0BD47
:10372000F0B505001C000E00170085B00AAB1B8821
:10373000013C03930368A4195B69984703992A68BD
:10374000019100973100280023B2946A3A00A04703
:103750002B682800DB6A984705B0F0BDF0B50E0075
:1037600087B003930CAB029200229B5E040004938B
:103770000DAB1B883500059303685B699847039A76
:103780002368B21895420BDA059A290000921B6A49
:1037900020001F00029A049B0135B8472DB2EEE7C6
:1037A0002000DB6A984707B0F0BD13B501910E24E5
:1037B000015F0C22835E02680091146C00221100EC
:1037C000A04713BDF0B5040015000E0087B00493A8
:1037D0000CAB00229B5E05930DAB1B880393036823
:1037E0005B699847039A2368009231002A00200001
:1037F0005F6A049BB847059B03995A1E2368009192
:103800005219310020005F6A12B2049BB847039A34
:103810002368009231002A0020001F6A059BB847E8
:103820000499039A23680139009289192A0020001B
:103830001F6A09B2059BB84723682000DB6A9847D6
:1038400007B0F0BD7047F0B585B002930AAB002712
:10385000DF5F0BAB1B8816000393029B04000D0077
:103860000268994210D1BE4202DD33003E001F00C3
:10387000039901370091BB1B976B1BB232002900E3
:103880002000B84705B0F0BDBE420CD1029B994262
:1038900001DD029D0291029B039901335B1B0091A4
:1038A000D76B1BB2EAE753699847039A23680192E2
:1038B000009720009F6A3200029B2900B8472368C6
:1038C0002000DB6A9847DDE703230B4010B58376C1
:1038D0000822835E0A24025FC90702D48381C28161
:1038E00010BD8281C381FBE74281C2810122002396
:1038F00010B55242064C4261064A083443600460E7
:1039000001818181036182610377036210BDC0463A
:103910006C45010001010001F0B595B01D001AAB26
:103920001B88049205931BAB1E881CAB1B78026A94
:1039300002931DAB1B78040008910393002A00D06A
:10394000C4E00C22835E8B4200DC7DE00E22835EAD
:10395000049A934278DD0623029A53435B18002BA6
:1039600072DD039B049ADB009B18002B6CDD037F48
:10397000002B03D1AF2D01D90135EDB22368200012
:103980005B6998470522002355430793984B0B9298
:103990005B190F93079A0F9B9B5C0A936B469B8B5B
:1039A00009936B461B89099A0E936B461F8C029BE9
:1039B0005343FB181BB20D9308230C93002306936B
:1039C00001220A9B2068134252D06B461A8B198A37
:1039D000029B012B3AD1039B012B37D1099B521833
:1039E0008569D919059B12B209B22000A847069B28
:1039F00001335BB206930A9B5B080A930C9B013B65
:103A0000DBB20C93002BDBD1079B01335BB2079336
:103A10000B9B013BDBB20B93002BBBD1059BB3424D
:103A20000ED0029B2268012B3FD1039B012B3CD17E
:103A300005370096156A2000049A39B20733A84763
:103A400023682000DB6A984715B0F0BD6B46082557
:103A50005B5F039D6A438A18059912B2019169461A
:103A60000C25495F0091C5690D992000A847BEE764
:103A7000059BB342BBD06B461A8B198A029B012B64
:103A80000AD1039B012B07D1099B5218D9198569CB
:103A9000330012B209B2A8E76B4608255B5F039DAD
:103AA00001966A438A1812B2D9E76B4608215B5E19
:103AB00005210E980196414303987918C0000090A3
:103AC000D5692000049A09B2A847B9E7137A51686A
:103AD000ED1A1268EDB2ED0013924A5B4B19099290
:103AE0009A780D92DA78119205229A569B790E9265
:103AF0005BB20F93029B012B02D8039B012B56D97B
:103B00006B4638229B5E0B936B463C229B5E0C936C
:103B10000027236820005B69984707970697119B49
:103B2000069A9A4200D38BE76B461B8A00260A93BB
:103B30000C9B9B18039A53430A9AD3181BB21093F9
:103B40003B000D9A96424BD25A1CD2B212920722D7
:103B5000134207D1099B0999139A0133525C9BB216
:103B6000079209936B461B7F5BB2002B17DA6B46FB
:103B7000198C029B2068012B1DD1039B012B1AD1AC
:103B80000A9B0F9A9A18069BD2180E9B12B2C9185C
:103B9000836989191D002000059B09B2A847079B6E
:103BA00001365B00DBB20793F6B2129BC9E7002334
:103BB0000C930B93ACE76B4608229B5E0B9A029D1D
:103BC00092196A438918059A09B201926A460C252E
:103BD000525F0092C26920001500109AA847DEE7E4
:103BE000069D0D9B0135FF18EBB2FFB2069396E7D9
:103BF0006C400100F0B5026A04000B0085B0002A99
:103C000034D10A2908D1437E0282DB00628A9B18E4
:103C10006382012005B0F0BD0D29FAD0E17E007E5F
:103C2000657E00290ED01026A15F0626464389191D
:103C30000C27E65FB14205DD1226A15F2282EA0071
:103C4000521862820290E08A1221625E0190A08A7C
:103C50001026A15F009003952000FFF75DFE06226D
:103C6000237E5343228A9B182382D2E70A2905D157
:103C700000230382127B437E5343C7E70D29C8D03C
:103C8000117A8B42C5D3907A9842C2D3591A5068A0
:103C9000C9B2C9004518AF78002F28D0E9780029AB
:103CA00025D0E17E207E667E002913D0052169564D
:103CB000C91941438C461021675EBC440C21675EE4
:103CC000BC4507DD1227E15F00272782127B724384
:103CD000521862820290E08A1221625E0190A08AEC
:103CE0001027E15F009003962000FFF715FE2B7967
:103CF000227EB6E70B1C002900D101230376437610
:103D00007047000010B50C4CA14200D92100013AC7
:103D10000160511E8A414271012B0AD0032B06D04B
:103D2000002B02D00023037110BD0123FBE7022307
:103D3000F9E70323F7E7C04600366E01F7B5002622
:103D4000002500270400019308AB9E5709AB5D577F
:103D500012B20AAB09B2DF57FFF7C6FD1B4B0022B8
:103D600008332360230068335F700127DD701A7009
:103D70009E700833E2661A80019B39006363182342
:103D80005D431348626743195B6899402B5661662F
:103D90001049DB015D18AC46E5620F4D5B192363EA
:103DA00096420DDB18235E4383195B689F403356B0
:103DB0002766DB015A185B196262A3622000FEBD10
:103DC0006146A36261622266F8E7C046C44501000D
:103DD000B44B0100184400411444004130B50400C4
:103DE00085B008A809AD00782D7840B26DB2019079
:103DF00000932000034B0295FFF7A0FF200005B0C1
:103E000030BDC046DC060020F0B504000D001700F0
:103E100085B0002900D15F4D260000206A3630565B
:103E2000002807DB012106F02FFE0020012130567B
:103E300006F05AFE260000206B363056012106F0AF
:103E400023FE00200121305606F04EFE2300683389
:103E50001E78002E34D13B000122290002A8FFF772
:103E600051FF2000062202A938300BF029FC4A4BF2
:103E7000606B2764984201D101F064F80020693436
:103E8000205600281ADB012106F0FEFD002001214A
:103E9000205606F029FE642006F0A0FA002000213A
:103EA000205606F021FE642006F098FA0020012139
:103EB000205606F019FEC82006F090FA05B0F0BDB5
:103EC000012E1DD12500002054353100285606F062
:103ED000DBFD00200021285606F006FE02203100FE
:103EE000285606F0D1FD02200021285606F0FCFDE0
:103EF000552020560028C1DB002106F0C5FDBDE796
:103F00005C221823A256254D53435A5DEB185F6877
:103F1000230000925F331978FAB20F23002900D1F1
:103F2000083B00269B18DBB201930023009AEB5656
:103F300093420FD1FF226B683A4093420AD3019A11
:103F4000934207D80121300006F09EFD0021300089
:103F500006F0CAFD013618351A2EE6D125000020DC
:103F60005D352856012106F08FFD002001212856DD
:103F700006F0BAFD012028560135002800DA7DE759
:103F8000012106F081FD00200121285606F0ACFD3C
:103F900074E7C0460024F400DC060020B44B0100A6
:103FA000030010B568331B78002B03D1343007C8E9
:103FB00000F0DEFE10BD10B50400FFF7F1FF230096
:103FC0006A331B787F2B02D8A36A226E1A6010BD59
:103FD000030010B568331B78002B02D1406B00F052
:103FE000E3FE10BD030010B56A331B787F2B02D8A7
:103FF000436A026E1A60FFF7EBFF10BD826C436DDF
:104000001360426C13607047F7B504000E00151E74
:1040100055D0CBB20193030068331B780F0A002BF5
:104020000AD1013D4BD33900606B00F0D1FE0199FC
:10403000606B00F0CDFEF4E7012B18D11020013D9C
:104040003DD3310003000FB2A26C002F0DDAA76B35
:104050003A60276CE26C013B3A60676C49009BB2A6
:1040600089B23A60002BEED1E9E7E76BF0E7CBB21B
:104070009F420FD102005F321278436B002A07D1B2
:104080006D001F70013D1AD32000FFF7B7FFF9E75D
:104090001980F7E7013D12D322005F321278636B7B
:1040A000002A0AD11F702000FFF7A8FF636B019A56
:1040B0001A702000FFF7A2FFECE71E80F9E7F7BDBA
:1040C000F0B504001E0085B00AAB00255D5F0BABA8
:1040D0001B880068AFB20097476D03932000B3B20E
:1040E00092B289B2B8472A00200072430399FFF7C1
:1040F0008BFF05B0F0BDF0B589B00EAC0025645F54
:104100000FAD2D880795002B48D0002C46D0002BF2
:1041100005DA9BB2013159185B4209B21BB20C2679
:10412000855F8D423ADD002C05DAA4B20132A21877
:10413000644212B224B20E27C65FB44696422DDD09
:10414000CF18BEB20296013E37B20597360425D489
:104150001619B6B2771E03966E4604971027F75FBE
:104160000697049F3E0419D4002902DA0021029B1D
:104170001BB2002A02DA039A14B20022059EB5424D
:1041800001DC6B1A1BB2069DAC4502DC6446A41A26
:1041900024B2079D00940195FFF792FF09B0F0BD8E
:1041A000F0B589B01C000EAB160000229B5E070024
:1041B00003930FAB1B880D000793002C56D0039B75
:1041C000002B53D0002C05DAA4B2013565196442E6
:1041D0002DB224B20C22BB5EAB4247DD039A002A0B
:1041E00007DA6A46918901368E1949420AB236B217
:1041F00003920E217A5EB24238DD281981B2049111
:10420000013908B20590090430D40399711889B2B4
:10421000481E844600B206906046000426D4002D55
:1042200002DA0025049804B2002E02DA002609B250
:10423000039105998B4201DC5B1B1CB2069B9A42E1
:1042400002DC921B13B203933B6838005B6998470A
:10425000079B38000193039B320000932900230041
:10426000FFF72EFF3B683800DB6A984709B0F0BDC6
:10427000F0B585B01C000AAB1B8806000D00171EA8
:10428000039330DB0E22835EBB422CDD002C2AD050
:1042900005DAA4B20135651964422DB224B20C22AC
:1042A000B35EAB421FDD2A1992B2511E08B2090457
:1042B00019D4002D01DA002514B2834201DC5B1B06
:1042C0001CB2336830005B699847039B3000019350
:1042D00001233A00009329002300FFF7F1FE336821
:1042E0003000DB6A984705B0F0BDF0B585B01C0022
:1042F0000AAB1B8806000F001500039300292FDB73
:104300000C22835E8B422BDD002C29D005DAA4B26F
:104310000135651964422DB224B20E22B35EAB4260
:104320001EDD2A1992B2511E08B2090418D4002DBC
:1043300001DA002514B2834201DC5B1B1CB2336836
:1043400030005B699847039B300001932A000123EA
:1043500039000094FFF7B4FE33683000DB6A9847F9
:1043600005B0F0BDF0B585B00AAC24880394002AEE
:1043700025DB0E25445F944221DD002B1FD005DA9A
:104380009BB2013159185B4209B21BB20C25445F44
:104390008C4214DDCD18ADB26F1E3EB2B4463E0461
:1043A0000DD4002901DA00212BB2644501DC631A27
:1043B0001BB2039C019401240094FFF781FE05B019
:1043C000F0BDF0B585B00AAC24880394002925DB44
:1043D0000C25445F8C4221DD002B1FD005DA9BB2F7
:1043E00001329A185B4212B21BB20E24065F96424B
:1043F00014DDD418A4B2671E3DB2AC463D040DD402
:10440000002A01DA002223B2664501DCB31A1BB28E
:10441000039C009301940123FFF752FE05B0F0BD09
:10442000030010B568331B78002B03D1406B00F0FC
:10443000CFFC10BD012B14D107334CB2826C002C81
:104440000DDA846B2260046CC26C013B2260446C08
:104450004900DBB2C9B22260002BEED1E9E7C46BA0
:10446000F0E702005F321278436B002A03D1197023
:10447000FFF7C4FDDDE789B21980F9E710B5040044
:10448000036B426E1A60FFF7CBFFE36A626E1A603D
:1044900010BD70B5040003680D005B6998472300E8
:1044A000002D09D0703319782000FFF7E7FF23684B
:1044B0002000DB6A984770BD7133F4E7030070B5E4
:1044C00068331B7804000D00002B08D1090A406BEB
:1044D00000F07EFC606BE9B200F07AFC70BD012B4D
:1044E00014D10F3329B2A26C00290DDAA16B0A6036
:1044F000216CE26C013B0A60616C6D00DBB20A600A
:10450000ADB2002BEED1E9E7E16BF0E702005F32DC
:104510001278436B002A0AD10A0A1A70FFF76EFD5F
:10452000636BEDB21D702000FFF768FDD6E71980C0
:10453000F9E773B504001D00002915DB0C20235E8C
:104540008B4211DD002A0FDB0E20235E93420BDD30
:10455000012320680093466D89B2200092B2B047D3
:1045600029002000FFF7AAFF73BDF7B504000D0076
:1045700016001F0000291CDB0C22835E8B4218DD15
:10458000002E16DB0E22835EB34212DD03685B69E8
:104590009847012320680093A9B2B2B2456D20006C
:1045A000A84720003900FFF789FF23682000DB6A55
:1045B0009847F7BDF7B5040027006A3701930E004E
:1045C0001500FFF7EDFC3B787F2B02D8A36A226E23
:1045D0001A6031000026236B626E20001A60FFF71C
:1045E0001FFFE36A626E1A60019BB34216DD23006F
:1045F00068331B78022B0BD123005F331B78002B11
:1046000006D029882000FFF759FF02350136EBE775
:1046100029782000FFF704FF0135F7E73B787F2B6F
:1046200002D8636A226E1A602000FFF7D1FCF7BD42
:10463000F7B5040001930E001500FFF7B1FC23004D
:104640006A3300931B787F2B02D8A36A226E1A600C
:1046500031000026236B626E20001A60FFF7E0FE37
:10466000E36A626E1A60019BB34217DD2300683370
:104670001B78022B0CD123005F331B78002B07D053
:1046800020002988FFF71AFFAF1C3D000136EAE73A
:10469000200029786F1CFFF7C3FEF6E7009B1B780C
:1046A0007F2B02D8636A226E1A602000FFF790FC0D
:1046B000F7BD030070B568331B7804000D00002BB4
:1046C00012D1090E406B00F083FB290CC9B2606B5C
:1046D00000F07EFB290AC9B2606B00F079FB606BC9
:1046E000E9B200F075FB70BD012B12D11F33A26C33
:1046F000002D0CDAA16B0A60216CE26C013B0A60B0
:10470000616CDBB20A606D00002BF0D1EBE7E16B6E
:10471000F1E702005F321278436B0E0C002A17D1CA
:104720000A0E1A70FFF76AFC636BF6B220001E7067
:10473000FFF764FC626B2B0ADBB213702000FFF7FB
:104740005DFC636BEDB21D702000FFF757FCCAE7FC
:10475000B6B21E80FFF752FC636BADB21D80F3E76B
:1047600000230372FA3301704260C360704710B5D2
:10477000037A0400002B0AD02178606800F00EF95B
:10478000606800F0BCF943425841C0B210BD01213D
:1047900000F003F80028EFD1F8E770B50400406896
:1047A0000D0000F0DBF801202072002D02D0200067
:1047B000FFF7DDFF70BDF8B51E00079B1500D3188D
:1047C000C26804000F00934201D90020F8BD0178AF
:1047D000406800F0E3F8079B002B0FD160682A00C7
:1047E000036839005B6898478542EED13100606804
:1047F00000F04DF943425841C0B2E7E7069B002B59
:10480000ECD06068079A036806995B689847079B35
:104810009842DAD1E2E7F8B505000F0016000178FA
:10482000D2B2406800F0D2F8002486420AD1A642F3
:1048300007D9686803685B69984738550134A4B2A2
:10484000F5E701242000F8BDF7B5070016000024A5
:1048500000910193B44213D2FB68351B9D4200D9ED
:104860001D00019B721BA24200D90023009A380050
:1048700011192A00FFF7CFFF002802D06419E9E7D9
:104880000120FEBD73B5040000201D0006AB40CB27
:104890001B78019000902000FFF78DFF002805D0C5
:1048A0000123320029002000FFF7CEFF76BDF8B5C6
:1048B00005000E0017000024BC4208D02B68280019
:1048C000315D1B689847002801D00134F4E72000CF
:1048D000F8BD70470300FC33196ADA69914203D0CE
:1048E0001B6AC018007E704701204042FBE70300AE
:1048F000FC33D8691B6AC01A01D50130FF307047FC
:10490000F7B50193FA238027002504009B008360FC
:10491000114B7F0008330E004560290000920360B0
:104920003A0018300AF0E8FE23002000FC33213062
:10493000DD613A001D622900FF300AF0DDFE8723A9
:104940009B00E3185D609D60009B20002375019B28
:104950002661A5756375FEBD2446010070B504008F
:1049600018260C49006903F0A7FF206903F000FE38
:1049700033000821207D084D4343EB18595606F0BB
:10498000F7F80821607D4643AD19695606F0F0F846
:1049900070BDC046A0860100B44B01008A230022EE
:1049A0009B00C1540C3BC3185A609A600123837565
:1049B00070470200FC32536810B501339468DBB2D3
:1049C0009C4202D054680155536010BDF7B5019365
:1049D00000230400150018009A422FD02200FC3258
:1049E000D36120691362012203F000FE002826D063
:1049F0002700206903F07CFE183701003800FFF71C
:104A0000D8FF01262069B5420ED003F0CFFD022168
:104A1000206903F0D5FD206903F06AFE010038002B
:104A2000FFF7C7FF0136EDE703F0B7FD019B002B51
:104A300003D00321206903F0C3FDE8B2FEBD0500E9
:104A4000FBE710B50300827D002082420ED0872252
:104A500092009C186268A4680132D2B2A24205D0CA
:104A60002133FF331800FFF7A4FF012010BD03001E
:104A7000FC3399685A68914206D09A68805C9A68BB
:104A80000132D2B29A60704701204042FBE7002217
:104A90008A2370B59B00827505000E00C15C006919
:104AA00003F0A4FD002806D10321286903F088FD46
:104AB0000224200070BD872328009B00EA18536859
:104AC00094682130FF301C1B01D50134FF34002CC9
:104AD0000ED02C69FFF7CBFFC1B2200003F0C4FD5C
:104AE0000028E8D10321286903F06AFD0324E0E7E8
:104AF000002EDED00321286903F062FDD9E710B54E
:104B00000121FFF7C4FF10BD10B51830FFF7AFFF4C
:104B100010BD70B50400006903F0C8FD002814D072
:104B2000206903F0D1FD002810D0206903F03EFD7C
:104B30000321206903F044FD8C239B00E558002DE0
:104B400039D10023FC34E361236270BD206903F096
:104B5000C5FD002809D0206903F0BBFD002804D062
:104B6000206903F0C0FD0028DFD0206903F0B6FD06
:104B7000002826D1206903F0A2FD0028E5D0206995
:104B800003F0B1FD002837D087239B00E21853685B
:104B900092689B1A01D50133FF33FF21002B05D00A
:104BA00020002130FF30FFF762FFC1B2206903F01F
:104BB0006EFDA075C9E7236820001B699847A847C8
:104BC000BFE7206903F0F2FC2069032103F0F8FC41
:104BD000206903F088FD0028B7D0872300229B00BE
:104BE000E3185A609A600123A3758B239B00E35856
:104BF0009342AAD09847A8E72200FC32D369126AF0
:104C00000133DBB22069934206D103F0C6FC0321D5
:104C1000206903F0D5FC98E703F06AFD010020004D
:104C20001830FFF7C6FE206903F0C0FCEFE7000074
:104C300010B50248FFF76DFF10BDC046A804002064
:104C400010B51523142202490248FFF759FE10BD82
:104C5000C4110020A804002010B500F06DFB002254
:104C6000024B8000C35849331A7010BD3007002032
:104C7000F0B5040085B01E000AAB1B78103001931C
:104C80000BAB1B78170002930CAB1B780D00039342
:104C900000F0D4F92000243000F0D0F922000023E5
:104CA0004832A363E36323646364137053706372D5
:104CB0009D4205D12721084B084A09480AF062FCA9
:104CC0002000019B25606371029B2771E371039BA8
:104CD000A671237205B0F0BD484601005946010097
:104CE000AD46010030B5040085B002AD0068029108
:104CF000039203F0F8FB6B79227AE1792068009344
:104D0000002303F0AFFD2979029A206803F010FC1C
:104D1000206803F0DEFB05B030BD10B5040000686C
:104D200003F0CAFB0023637210BD000010B54B1CDA
:104D30000BD0102909D0EFF3108472B6102905DDCD
:104D400002238372002C00D162B610BD0123827A47
:104D50001A43827218224A430449891816228A5635
:104D60009340C2681343C360ECE7C046B44B0100F4
:104D700007B5837A00910192002B07D09A070AD5D4
:104D8000EFF310835A425341C37272B60099019AED
:104D9000FFF7A8FF07BDDB07F8D5C368014A9BB240
:104DA0009360F3E700180040837A002B05D09A0740
:104DB00004D5C37A002B00D062B67047DB07FCD560
:104DC000C368024A9BB2D360F7E7C04600180040B0
:104DD00010B5006803F090FB10BD704770470000ED
:104DE00010B5006803F092FC03000020834203DB4F
:104DF0000C304343014A985810BDC0460847010093
:104E000010B5006803F082FC002805DB0C23434347
:104E10000348C018406810BD01204042FBE7C0466F
:104E20000847010010B5006803F070FC002805DB9E
:104E30000C2343430348C018806810BD0120404242
:104E4000FBE7C04608470100F0B506001036050034
:104E500089B0300000F048F900286CD12F002437C9
:104E6000380000F041F9041E62D12800FFF7DAFF94
:104E7000C1B2300000F018FA0221300000F038FA18
:104E800001222E49300000F00BFA300000F054FAF5
:104E90002B4B8000C5502800FFF7B2FFC1B238008D
:104EA00000F002FA0221380000F022FA380000F087
:104EB00043FA234B8000C5502800FFF791FF0123E0
:104EC0000100220002933000230004940394019413
:104ED000009400F033FAA8632800FFF781FF012354
:104EE00002002100019338002300049403940294EB
:104EF000009400F023FAE86340200AF0BFFB2A0088
:104F000048322864079200280BD00123137068648C
:104F10006B6C10221819E96B10340AF0D1FB402C8D
:104F2000F6D1079B1B78002B05D1380000F076F9ED
:104F3000300000F073F909B0F0BDC046594C0000D4
:104F40003007002070B5437A0400002B03D1012202
:104F500043814272C360230048331B78002B02D187
:104F60002000FFF771FF18263300082120790D4D2E
:104F70004343EB18595605F0FBFD33000821A07997
:104F80004343EB18595605F0F3FD08216079464379
:104F9000AD19695605F0ECFD034B200006CBFFF779
:104FA000A1FE70BDB44B0100280700201FB5094ABF
:104FB000094B0A4913600023938002930133019344
:104FC00016330093162201330548FFF751FE05B052
:104FD00000BDC0462807002000093D00C811002080
:104FE000DC060020084B1968002909D1EFF3108076
:104FF000064A002803D172B6BFF35F8F01311170EA
:105000001A6801321A607047E8080020E40800209E
:10501000084B1A68002A0CD01A68013A1A601B68FB
:10502000002B06D1044B1B78002B02D0BFF35F8FFF
:1050300062B67047E8080020E4080020FF2310B59E
:105040000370C023002104009B00417041808380D5
:105050000C2208300AF050FB200010BD01230A008A
:1050600010B51A40194208D00C4A1370033343702C
:105070008368002B00D0984710BD0223194204D04A
:1050800006490B70C3684270F3E704231942F3D05A
:10509000024A1370033343700369EAE74E48004144
:1050A00010B5FFF79FFF0C4B1B8C1B071B0F0B2B27
:1050B0000FD80A4A9900885800280AD00F240849B6
:1050C0000A78A24313430B70064B1978C9B2FFF755
:1050D000C5FFFFF79DFF10BD00480041EC08002010
:1050E0003F4800414E480041F8B5002302780500D2
:1050F00018000B2A77D93C4E2B702B780B2B07D836
:1051000001229A403168114204D001332B70F4E738
:10511000012068E0FFF766FF3768344C002F2BD181
:105120002022334B334859690A435A611022D96906
:105130000A43DA61022223883900934323802388BB
:10514000013A134323802C4B6063BF32A3630AF000
:10515000D3FAC022390028480AF0CEFA4022C120F2
:10516000264B80002380264B26491A601A5811408E
:10517000C02212040A431A5001231A002978306809
:105180008A40024332600F261F4A880085501F481C
:1051900031400278B2430A43027002201C4A11785F
:1051A00081431170117819431170297822698B405D
:1051B0009A43226160223F21636C934363642A799E
:1051C000636C0A40134912020B40032113436364CA
:1051D0006A79636C0A40104992050B40134363647B
:1051E000FFF716FF0020F8BDE0080020004800414E
:1051F000000400402008002060070020020F00008B
:1052000000E100E0FFFF00FFEC0800203F48004104
:1052100040480041FFC0FFFFFFFF3FFF70B50500A2
:10522000FFF7E0FE6B785CB2062B2BD02B780224C4
:105230000B2B27D801229A40144B1968114221D018
:105240001968914319601B68002B14D14022104B40
:10525000DA67BFF34F8FBFF36F8F21000D4A0E3116
:105260001388A34313800C4BDA698A43DA615A69C5
:1052700010318A435A6100242B78084A9B009C50C5
:10528000FF232B70FFF7C4FE200070BDE008002054
:1052900004E100E00048004100040040EC08002068
:1052A0000232920011507047037870B505000C006F
:1052B00001710B2B14D8FFF795FE29780F250948AB
:1052C00029400378084AAB430B4303703F23516CDA
:1052D0001C40064B240219400C435464FFF798FE0F
:1052E00070BDC0463F48004100480041FFC0FFFF7D
:1052F000037870B505000C0041710B2B14D8FFF733
:1053000071FE29780F25094829400378084AAB43E4
:105310000B4303700323516C1C40064BA40519403A
:105320000C435464FFF774FE70BDC0463F48004113
:1053300000480041FFFF3FFF00787047F0B587B09D
:1053400001930CAB1E780DAB1B78050002930EABDE
:105350001B780078039310AB1F78049105920B28FB
:1053600002D9002007B0F0BD6B78062BF9D0AB78DE
:10537000002B00D179E0102108000AF075F900280F
:10538000EFD02B783B4A1B019B181A00D1680029EB
:1053900004D0D1688B4201D0D268F7E7D0600122F7
:1053A0000223AA70964203D0DB18022E00D013000D
:1053B00006240188114301800188A14301800188EE
:1053C0001234A1430180153C018826402A4C360244
:1053D00021400E430680029E0188284C1640214041
:1053E000B6020E430680039E0188254C16402140DC
:1053F000F6020E4306800188224E3A4031401203E5
:105400000A43072102800F9A114002884903D204FF
:10541000D20C0A4302806A4692884280049A426013
:10542000029A002A08D0019A41685A43002F01D0FD
:105430000F9CA2408A184260059A8260039A002A53
:1054400009D0019A84685A431300002F01D10F9AA2
:105450009340E31883600023EA789A4203D02B78C4
:10546000044A1B019B18C3607CE7024B0001C01873
:1054700095E7C04620080020FFFCFFFFFFFBFFFF71
:10548000FFF7FFFFFFEFFFFFF7B56B46DA1D0023C5
:10549000137003331940030081767E3300241C5FB0
:1054A00003008033060000255B5F05006C366E3517
:1054B00002291FD0032925D00700793701290ED0F2
:1054C000C021117001007831097831803978298044
:1054D0008481C38101233621FFF76CF8F7BDA02139
:1054E00011703978318001007B3109782980C481BD
:1054F0008381EFE701007B310978318001007C3145
:105500000978E4E76021117001007C31097831806D
:1055100001007831E9E7000013B50400A0200193F1
:1055200000920B004200F021200000F0BBF8054B78
:1055300022000833236000237B3220001370537055
:1055400016BDC04674470100F8B5150002000400FE
:105550007A3213700E00002100F0DEF820002100E6
:1055600022007C307B317832F02E15D1F02D1ED107
:10557000002303700B70A023DB01138023007E3314
:105580001E805D802000144900F0A6F823680021E9
:1055900020001B6B9847F8BD872E08D1F02D06D14F
:1055A000282303700D4B138034230B70E6E7A027EC
:1055B0007F007F1BFB0FDB195B10DBB20370200049
:1055C00079300370F020801BC30F1B185B10DBB217
:1055D0000B701370D2E7C046504701003528000019
:1055E00010B5002900D105490300054A4167703311
:1055F0001A809A7AFEF708FC10BDC0460048E80100
:105600002120000070B51E0004AB1D8803000400BB
:105610006C33188802331B880818D21880B292B2F3
:10562000861955190004013E120406432A21200060
:10563000013D1543FEF722FF31002000FFF739F846
:1056400020002B21FEF71AFF29002000FFF731F878
:105650002C212000FEF712FF70BD73B56B46DA1DDA
:10566000002313700333194003000500783381765B
:105670001E785C786E350C3B022905D003290FD0CB
:10568000012908D0C02111701E802C8001233621F1
:10569000FEF790FF73BDA0212E8011701C80F5E7EE
:1056A0006021F9E737B5040007AD06A800782D782A
:1056B00040B26DB2019500902000FEF78FFB054BC4
:1056C000002208332360230078331A80023220003E
:1056D0009A703EBDD4470100F7B50C7801904B1C81
:1056E000013CE4B2FF2C16D07F265D789F1C2E4033
:1056F00019783A00330001986DB2FEF799FFBB1993
:10570000002DEDDA18785D1CFF2800D1F53004F08B
:1057100065FE2B00E4E7F7BD036870B51B6D0D0057
:10572000002104009847002D03D029002000FFF736
:10573000D3FF70BD70477047704710B5040004F088
:10574000DDFE200010BD10B5040004F0D7FE2000DF
:1057500010BD000070B50C000500282200212000BB
:1057600009F0CAFF0B22200009490AF033FF002389
:105770000122E372E2606A6863620023E361054B21
:105780002261A36180230C22DB056261236270BD6C
:10579000344801000000C84270B50C000500282202
:1057A0000021200009F0A8FF0B22200009490AF07F
:1057B00011FF00230122E372E2606A6863622261E2
:1057C0000D22054BE361054B6261A361044B23622B
:1057D00070BDC0463C480100000020C20000AA4243
:1057E0009A99993E30B5030000780822C0433124CD
:1057F000C0B2410045B220004840C0B2002D11DACD
:10580000013A002AF5D15B78312158400823420043
:1058100044B208005040C0B2002C05DA013B002B16
:10582000F5D130BDC8B2EBE7D0B2F7E70023C360D3
:10583000036143610383704710B50400C06800280A
:1058400001D004F05BFE2069002802D003685B6889
:1058500098476069002802D003685B689847200079
:1058600010BD1FB50F21942369440B7000230193D1
:10587000009301331A00C068FEF79DFF041E02D09A
:10588000012004F0ABFD200004B010BD70B5040091
:10589000C0680E00002801D004F030FE2069002806
:1058A00002D003685B6898476069002802D00368EB
:1058B0005B689847102004F01DFE0500442132006B
:1058C000FEF74EFF01212800E560FEF766FF002885
:1058D00002D10025280070BD2000FFF7C2FF051E81
:1058E000F7D00C2004F006FE094B846008330360F7
:1058F000084B606143600C2004F0FCFD064B8460A3
:10590000083303608023DB0043602061E2E7C04688
:10591000604801000104000044480100017670471E
:105920004176704770B50C0005001600081D202256
:10593000002109F0E1FE242323606B8963600D23BD
:10594000A3602B682661636170BD70B50C00050013
:105950001600081D2022002109F0CEFE242323601A
:105960002B8963600C23A3606B682661636170BD43
:10597000F0B58DB004000491059204F0F9FC0F21FC
:1059800004ABC918FD230B70637E0390002B1AD162
:10599000237E012B10D10525F5330B7000230193D5
:1059A000009301331A00E068FEF705FF002827D1B5
:1059B000002630000DB0F0BD0A25022BEED1E0220A
:1059C0001D000A70EAE7012B0CD0022B0ED0032B2E
:1059D00010D0042B10D00A25052B0FD0062BDDD1BB
:1059E000152304E03923364D0B70D7E732236E259B
:1059F0000B70D3E72F23F6E72423F8E71E23F2E703
:105A000028000AAD04F0EAFC012306222900E06820
:105A1000FEF71AFF061ECBD02800AF78FFF7E2FE94
:105A20008742C5D11B2004ABC0186F79FFF7DAFE9F
:105A30008742BDD1E8782B790002C01807F01AFE22
:105A4000071C28786B780002C01807F013FE1D4968
:105A500007F02EFB1C4907F061F91C4907F042FCD6
:105A60001B492060381C07F023FB174907F056F943
:105A7000184907F037FC00216060089106F06CFFC0
:105A800008AD002800D1251D13492868099106F0AA
:105A900077FF002800D009AD2B686360059B002BC1
:105AA00004D019002000039AFFF73CFF049B002B51
:105AB00000D17EE719002000039AFFF746FF78E740
:105AC0004C04000000002F4300FF7F4700003442D9
:105AD0000000FA420000C0400000C84210B5002299
:105AE0008068FFF745FF012010BD10B50A008068EF
:105AF0000021FFF73DFF012010BD0120704700206D
:105B000070478171704741717047C172704701736E
:105B1000704741737047837B934319438173704788
:105B2000C079C0B27047007AC0B27047407AC0B244
:105B30007047807AC0B27047008A00B2704700791F
:105B4000C0B2704701717047408A80B27047808A46
:105B500080B27047C08A80B2704710B504002379C4
:105B6000032B02D104F05AFCF9E7012010BD70B5F7
:105B700005000C002B682800DB689847002807D137
:105B800004F04CFC002CF5D0200004F027FCF1E7D9
:105B900070BDF8B505000F00140004F0E9FB060025
:105BA00004F0E6FB801BB8420DD22B682800DB68AE
:105BB0009847002808D104F031FC002CF0D02000D8
:105BC00004F00CFCECE70020F8BD70B505000E00F9
:105BD00004F0CEFB040004F0CBFB001BB04205D266
:105BE0002B79032B04D104F019FCF4E7002070BDDD
:105BF0000120FCE7C36970B50400002B17D004F046
:105C0000B7FB64260500236820001B6B984700281B
:105C10000DD004F0ADFBE369401B984209D80A217E
:105C2000012004F0E8F9704304F0D8FBEBE7012011
:105C300070BD0020FCE70000064BFF22036000233C
:105C4000037142714382C272838282818373C382F1
:105C5000C3617047844801007047704770477047C0
:105C60007047417170478171704701717047000042
:105C700010B5034C0834046001714271837110BD8A
:105C8000FC48010010B50248FFF7A2F810BDC0465D
:105C9000DC06002010B50248FFF79FF810BDC04693
:105CA000DC06002010B50248FFF798F810BDC0468A
:105CB000DC06002010B50279042A26D0032A26D05B
:105CC000022A26D0013A53425A41154B52421A40F9
:105CD000D21843798179013B00291CD001291AD0BF
:105CE000022918D0032916D059424B410021DBB2BA
:105CF000140A02724472140C120E8472C27201737E
:105D000043730848FFF71EF910BD074AE1E7074A49
:105D1000DFE7074ADDE75C426341DBB2E8E7C04604
:105D200040420F00DC0600200024F40000127A003C
:105D300000093D0010B50248FEF7EFFF10BDC04658
:105D4000DC06002010B58168C2680248FFF710F831
:105D500010BDC046DC06002010B50248FFF724F84D
:105D600010BDC046DC06002010B50248FEF7DEFF7D
:105D700010BDC046DC06002010B50400FFF778FF18
:105D8000044B200008332360034BA3600023A3814E
:105D900010BDC0463049010000093D00002310B588
:105DA0001A0019000148FFF7E7FF10BD1C09002089
:105DB00072B6BFF35F8FBFF34F8FBFF36F8F0120BA
:105DC000704710B50400006A0368DB689847631DDC
:105DD000D87FFF2802D0012104F056FE236820005E
:105DE000DB6F9847642004F0F9FA012010BD10B56C
:105DF00005300021C07F04F077FE10BD10B50530DE
:105E00000121C07F04F070FE10BD80F31088BFF345
:105E10005F8FBFF34F8FBFF36F8FBFF35F8FBFF302
:105E20004F8FBFF36F8F704770B504000D001600E1
:105E3000FFF702FF034B26622360631D2000DD771E
:105E400070BDC0466C490100F8B504000E00EFF3C8
:105E50001087FFF7ADFF0025A8421BD0206A03681A
:105E60001B6A9847236820009B6F98477F21206A10
:105E7000314003681B689847206A290003681B6843
:105E8000984723680500DB6F20009847206A036865
:105E90005B6A98473800FFF7B8FF2800F8BDF7B5F0
:105EA000040016000191EFF31087FFF781FF002532
:105EB000A84220D0206A03681B6A98472368200004
:105EC0009B6F98478021019B206A0B431900036850
:105ED0001B6898470500206A310003681B689847D3
:105EE0001023013BFDD123682000DB6F9847206A17
:105EF00003685B6A98473800FFF787FF2800FEBDFC
:105F0000F7B504000E0000920193EFF31087FFF73E
:105F10004FFF0025A84226D0206A03681B6A9847D5
:105F2000236820009B6F98478021206A49420368BC
:105F300031431B68C9B298470500009E019BF318C6
:105F40000093009B9E4206D0206A31780368013698
:105F50001B689847F5E723682000DB6F9847206AA5
:105F600003685B6A98473800FFF74FFF2800FEBDC3
:105F700010B5006A03689B6A984710BD10B5C31C32
:105F80000400D87F04F0DCFD431E98410634E37F13
:105F9000584010BD10B50430C07F04F0A5FD10BD01
:105FA00010B5C31DDB7F0530C07F594004F09CFD58
:105FB00010BD10B503790400022B08D00021FFF7B3
:105FC000EFFF00212000FFF7E5FF0223237110BD42
:105FD000082388101840030010B5064A0833984279
:105FE00005D0145C8C4203D00130C0B2F7E700202A
:105FF00010BDC046EC490100F8B50400FFF7BEFF34
:10600000002805D022002A3213780133DBB2137046
:106010002100230029310A782B33824252D01A788A
:106020000B254F2A00D912351A785219D2B21A709C
:1060300008701A789F2A44D92100E28D2A3152082B
:10604000E2850A78042A04D98022E08D12010243F5
:10605000E2851A7825006032D2B21A7000232C35FE
:106060000B702A78D3B2002A48D026003036337815
:106070000133DBB233700B2B23D93F23E18D20009A
:106080001940FFF7A5FFE18D07008909C9B220007B
:10609000FFF79EFF2100220075313F010B78384346
:1060A000C0B27432002B12D110701378062B02D9B3
:1060B0001378432B0BD900232B70638A01339BB2D7
:1060C0006382F8BD1A781432D2B21A70B1E70B7835
:1060D0005F1CE3183133FFB20F7018700978137822
:1060E000994208D300232B7023000122083320009B
:1060F000DA77FFF75EFF00233370E2E7E18D054AB0
:106100009142DED101222A702200753430321370A0
:106110002370D6E7380B0000F7B5050078352F78E7
:1061200004007B1C2B70002F0ED10300020076337D
:106130000193FF321B78127A9A420BD8FFF739FF8E
:10614000E38A01339BB2E3822B78072B01D900232A
:106150002B70F7BD0600C31877367933197833787A
:106160005A1C1941012332701940FFF713FF33788D
:10617000052BE9D9019B37701B78019A0133137005
:10618000E2E7037910B5042B02D1FFF735FF10BD0C
:106190000379032BFBD1FFF7BFFFF8E71023054A74
:1061A00010B5917B0B439373034B1868FFF7E9FF1E
:1061B00010BDC046002C00422C09002072B6BFF36F
:1061C0005F8FBFF34F8FBFF36F8F012070473C206D
:1061D000704780F31088BFF35F8FBFF34F8FBFF31B
:1061E0006F8FBFF35F8FBFF34F8FBFF36F8F70471A
:1061F00010B503790400012B05D000220121FFF71F
:106200004EFE01232371012010BD0368F7B5DB6842
:1062100004000E0015009847019000281DD0002EA4
:1062200018D0002D16D0EFF31087FFF7C7FF002816
:106230000DD023002A331A782978914201D91B788E
:106240002B70210030002A782B3109F039FA380000
:10625000FFF7BFFF0023673423700198FEBD10B520
:106260003D210400FFF7F0FDFE223D210240200009
:10627000FFF715FE10BD000070B5040015001A00F0
:10628000FFF7D2FD034B20002360A31DDD77024BF7
:10629000E38470BDDC4A0100FF040000F7B5040090
:1062A000EFF31087FFF78AFF002866D0206A0368A3
:1062B0001B6A9847631D0193D87F002104F014FCEA
:1062C000206A002103681B689847206A0021036840
:1062D0001B689847031FDBB206003C2B44D8206A9A
:1062E000002103681B689847A379E071002B06D151
:1062F000E37962799A4202D0E379FF2B34D1206AA4
:10630000002103681B6898472072206A00210368F7
:106310001B6898476072206A002103681B689847D1
:10632000230000222A33A0721A7025002A352A7809
:10633000331F9A4210DA2B78206ADBB2009303688D
:1063400000211B689847009BE3182B3318702B78AB
:106350000133DBB22B70E8E7A38A012201339BB241
:10636000A382230067331A70019B0121D87F04F0B8
:10637000BBFB206A03685B6A98473800FFF729FF78
:10638000F7BD000070B50500081C09F00DF80022EB
:106390000E4B08F061F90E4B002207F057FD06F096
:1063A00003FB0400020C07212800D2B2FFF777FD9F
:1063B000220A28000821D2B2FFF771FD2800092126
:1063C000E2B2FFF76CFD012070BDC04680842E4113
:1063D00080844E4070B50D0001210400FFF734FDAC
:1063E0001C218843C2B20D4020002A431B39FFF70D
:1063F00056FD27212000FFF727FD0306F9D570BDC4
:1064000010B503790400022B16D0030029331B7842
:106410005BB2112B08DD55225A21FFF740FD702297
:106420005C212000FFF73BFD23000833D97F2000CB
:10643000FFF7D0FF0223237110BD70B5040028219F
:10644000FFF702FD23790500032B08D1030706D5CA
:106450002000FFF7D5FFE38A01339BB2E382237963
:10646000DAB2042B12D1154210D024212000FFF7FC
:10647000EBFC4010404200B2208203F079FFA0669E
:106480002000FFF7BDFF2000FFF708FF70BD0000F0
:10649000034B10B51868002801D0FFF7CEFF10BDE0
:1064A00034090020034B10B55868002801D0FFF7CD
:1064B000C4FF10BD34090020034B10B598680028B4
:1064C00001D0FFF7BAFF10BD3409002010B50379E1
:1064D0000400042B19D0030029331B785BB2112B65
:1064E00008DD55225A21FFF7DAFC70225C212000DA
:1064F000FFF7D5FC402225212000FFF7D0FC10211A
:106500002000FFF767FF0423237110BD10B5037946
:1065100004000020032B05D020006734FFF7D6FFCE
:106520002078C0B210BD10B503790400032B19D038
:10653000030029331B785BB2112B08DD5D225A2141
:10654000FFF7ADFC7C225C212000FFF7A8FC0022B5
:1065500025212000FFF7A3FC0C212000FFF73AFFC4
:106560000323237110BDF7B504000D0016003C2A6B
:1065700003D9002300930098FEBD03681B6A984767
:106580002000FFF73DFF23682000DB6A984700905A
:106590000028EED0EFF31087FFF710FE00283BD065
:1065A000206A03681B6A9847631D0193D87F002106
:1065B00004F09AFA206A802103681B689847206AD1
:1065C000311D0368C9B21B689847206AE17A0368E5
:1065D000AE191B689847206A217B03681B6898479F
:1065E000206A617B03681B689847206AA17B036867
:1065F0001B689847AE4206D0206A297803680135A7
:106600001B689847F6E7019B0121D87F04F06CFADC
:10661000206A03685B6A98473800FFF7DAFD2000BC
:10662000FFF781FFA7E70300293310B51970002A8F
:106630001CD08A1C01DAFE221A7000215956CBB2F6
:106640000D2905DC1F221233134021321A4309E0C1
:106650006022112903DD1F210B330B40F6E70E33B7
:106660001A43D2B21121FFF71AFC10BD0A001232F0
:1066700007DAEE221A701A781F2312321A40613399
:10668000E4E70D29F7DD0D22F4E770B50D000400F5
:106690000A0005230221FFF733FC6A1D022319219A
:1066A0002000FFF72DFCEA7937212000FFF7F7FBE8
:1066B00070BD000013B5040000201B290BD8064B49
:1066C000C900C9180822684608F0FAFF2000694688
:1066D000FFF7DBFF012016BDFC49010070B5050086
:1066E0000C000A0A2C21FFF7DAFB28002D21E2B268
:1066F000FFF7D5FB70BDF7B517000E002E21050082
:10670000FFF7A2FB7B1E04000193002E18D06B46FE
:106710001B79032B14D832003B002F212800FFF7F0
:10672000EFFB802252421443E4B2019B2800DA00BE
:1067300038239C4322432E21D2B2FFF7B0FBF7BD92
:106740007F221440F1E70000F7B50400FFF739FBA2
:10675000051E02D100252800FEBDA71DFE7F2000DA
:106760003100FFF705FC10212000FFF76DFB23002F
:10677000283318700138C0B2FD28EBD80021F87F0B
:1067800004F082F9E31DDA7FFF2A06D127490A784F
:10679000032ADFD8501C0870DA77DB7F244A99007F
:1067A0008C50002B38D104222249300003F028FB02
:1067B0002000FFF725FE8F223C212000FFF76FFB12
:1067C00030226F212000FFF76AFB55225A2120005A
:1067D000FFF765FB70225C212000FFF760FB164B82
:1067E000022201A920000B80FFF785FF1221200063
:1067F000FFF760FF20000421FFF770FF0F4A1049E8
:106800002000FFF7BFFD2000FFF729FD00220D212A
:106810002000FFF708FF9EE7012B02D1042209495F
:10682000C3E7022B96D104220749BEE730090020B6
:1068300034090020916400002DD4FFFFCDCC4C3DE5
:106840000000D943A5640000B964000010B50A0037
:10685000040000290FD010233E21FFF751FB3D21FA
:106860002000FFF7F1FA012202433D212000D2B2BD
:10687000FFF715FB10BDFFF7F2FCFBE713B56B4606
:106880000268D9710733546819000122A04716BD68
:10689000036A10B5181E02D01A689268904710BD9E
:1068A00010B50400006A002803D1012300206360B2
:1068B00010BD002392B2436000F054FF236A5B686E
:1068C000002BF5D0F1E7006A10B5002802D00121B5
:1068D00000F084FD10BD13B56B46DC1D01222100C4
:1068E00000F0AEFC012801D1207816BD0120404205
:1068F000FBE7006A10B5002802D0FFF7ECFF10BDDF
:1069000001204042FBE770B50500006A041E09D073
:10691000FFF7E1FF0400431C04D0286A0369591EF5
:1069200000F02CFD200070BDF8B5FA2300279B0075
:1069300083600D4B040008334760036028200E007D
:10694000150008F09BFE2062B8420AD028223100D0
:1069500008F0B6FE20000C222900103009F03AFEA3
:1069600027772000F8BDC0465C4B0100FA220023C7
:1069700092008260034A083243600260036203743B
:106980007047C0465C4B0100036A002B01D01869B8
:10699000704701204042FBE7036A181E00D0D86907
:1069A0007047000070B50500006A00280CD0280070
:1069B000FFF7F2FF04002800FFF7E6FF8023201A0C
:1069C0001B02984200D3014870BDC046FF7F000003
:1069D00010B50400006A002806D000F043FD206ACC
:1069E00008F056FE0023236210BD036A181E03D070
:1069F000587A431E9841C0B2704770B50122040016
:106A00000D0001F03BF902000120002A03D129000A
:106A1000200001F033F970BD030070B541331B78DD
:106A200004000D00002B02D0383000F01BFD2A00BE
:106A30000121200000F0B0F9002801D1002070BD34
:106A40002500103521002800FFF7D7FF0028F5D0DA
:106A500020002900383000F0C9FB431E9841C0B225
:106A6000EDE700004B684360094B03600B8903812D
:106A7000CB68C3600B6903614B6943610B7E03768E
:106A8000CB69C3610B6A03624B6A43627047C046BD
:106A9000984B0100F0B59DB00393002308AD02921E
:106AA00012AE264A07006B722800737210316B60B9
:106AB00073600892129200F099FB029C2F21200033
:106AC00009F05AFD002830D023782F2B01D1013452
:106AD000F4E7001BC0B2031C0C2800D90C23DBB266
:106AE0001A00210004A8019309F074FD0023019904
:106AF00004AA3000535400F0B5FC012329003000F3
:106B000004AA00F093FD002806D10C4B78603B608E
:106B1000787238001DB0F0BD019B2800E41800F029
:106B2000A1FC2B0035001E00C8E7029B2900E41AD7
:106B3000039B38001C60FFF795FFEAE7984B0100C4
:106B4000F0B5A3B001930023150004AE0393040035
:106B500003AB3000FFF79EFF039BEF18EB5C002BAD
:106B600009D1310018A8FFF77DFF174A200018A9A6
:106B7000FFF7DAFE0BE00022144B0EAD0E93737A92
:106B80006A726A60934205D12000FFF7EFFE200091
:106B900023B0F0BD3A0031002800019B00F046FD13
:106BA0000028F1D0300000F05DFC0623019A1A4065
:106BB000062A03D12800159900F0E0FB290018A847
:106BC000FFF750FF3A00D1E7023E0100984B010069
:106BD0000221084B00221961190030310A70064960
:106BE0005A719A719A721A73DA63996341331A70FF
:106BF0007047C04640090020984B010010B50100C5
:106C00000148FEF7E5F810BDDC06002010B5FF21B5
:106C10000148FEF7DDF810BDDC06002010B50121AB
:106C2000007903F061FF054B1A78002A04D0002296
:106C300003481A70FEF7B8F810BDC046A40900203A
:106C4000DC06002010B5084B04001A78002A06D193
:106C500001321A70054B064806CBFEF789F8002171
:106C6000207903F041FF10BDA4090020A8090020ED
:106C7000DC06002010B583790400002B0DD0238999
:106C80005A1C2281054A934202D8FFF7BFFFF6E75C
:106C90002000FFF7C3FF0023A37110BD0102000015
:106CA000030000B50800062903D9162200205A71F6
:106CB00000BD0F4B052916D8002205F07DFC030806
:106CC0000C0E10120B49196001209A80F0E70A4956
:106CD0009A801960ECE70949F5E70949F3E70949A2
:106CE000F1E70949EFE7094A1A600022ECE7C046DC
:106CF000A809002000366E0100093D0080841E00B6
:106D000040420F0020A1070090D0030048E8010096
:106D100070B50C0003F02CFB0500FFF777FFFF2890
:106D200006D003F025FB401BA042F6D3002070BD27
:106D30000120FCE7F8B504000D001700FFF79AFFEB
:106D40002000FFF77FFF962120004900FFF7E0FFBA
:106D500040202843FFF752FF18263800F040083E35
:106D6000C0B2FFF74BFF33000833F6D19520002D5A
:106D700003D06A30082D00D17838FFF73FFF002597
:106D8000FFF744FF43B2E072002B04DAFF2D02D07C
:106D90000135EDB2F4E7F8BDF7B5002502710573D2
:106DA0008572857145710400019103F0E1FA0121BA
:106DB0000090207903F068FE0121207903F094FE11
:106DC000424E3000FEF7BEF8414B42499D803000F4
:106DD0005A681960FDF7CCFF0A35013DFF20EDB27E
:106DE000FFF70CFF002DF8D13000FDF7DDFFFA278B
:106DF0002000FFF727FFFF00002220001100FFF70F
:106E000099FF0600E07201280CD003F0B1FA009B54
:106E1000C01AB842F0D9012320006371FFF7FEFECB
:106E20002800FEBDD522082120005200FFF782FF76
:106E30000423184218D026730026FA27FF000022E8
:106E400037212000FFF776FF320029212000FFF7CD
:106E500071FF021EE07216D003F08AFA009BC01A7E
:106E6000B842ECD90823D7E71E00FFF7CFFE013E5A
:106E7000F6B2E072002EF8D10223AA28CCD18026E7
:106E80002373F605D9E7237B022B15D13A21200085
:106E9000FFF750FF002801D00623BDE7FFF7B6FE3D
:106EA000C0231840984201D1BD3B2373FFF7AEFECB
:106EB000FFF7ACFEFFF7AAFE2000FFF7AFFE2000B1
:106EC0000199FFF7EDFE0500AAE7C046DC060020A9
:106ED000A809002090D0030070B5040003F048FA20
:106EE000962605007600FFF791FE0300E072FF286A
:106EF0000BD103F03DFA401BB042F4D90F23200020
:106F00006371FFF78BFE002070BD0120FE2BFBD0CC
:106F10000D23F4E7F8B516001D009A18802304002D
:106F20009B009A4216DC8379002B05D003688B42C4
:106F300002D10389B3421AD9237B2160032B00D0ED
:106F400049020A0020001121FFF7F4FE071E06D0B7
:106F5000032363712000FFF761FE002029E0200079
:106F6000FFF7BAFF0028F5D001232781A3712389F9
:106F7000B34208D3069E7719B7420AD0FFF746FE00
:106F800030700136F8E7FFF741FE23890133238192
:106F9000EDE72389ED18A37AADB22581002B04D04B
:106FA000802301209B009D4203D32000FFF762FE57
:106FB0000120F8BD13B504000120002B04D0049873
:106FC00000902000FFF7A6FF16BD802307B59B00A9
:106FD00000920022FFF79EFF0EBD70B5050008006D
:106FE0001400FFF70BFE80239B00E6182078013485
:106FF000FFF704FEB442F9D1FF20FFF7FFFDFF20A9
:10700000FFF7FCFDFFF702FE1F23E872034001209B
:10701000052B05D0112328006B71FFF7FFFD002021
:1070200070BDF8B51D0004001600122300291CD005
:10703000037B032B00D049020A0020001821FFF730
:1070400079FE0423071E10D13200FE212000FFF735
:10705000C4FF00280AD0002D1AD0962120008900F4
:10706000FFF756FE002806D1152363712000FFF7B5
:10707000D5FD002010E03A000D212000FFF75AFE58
:10708000002801D01423F0E7FFF7C0FD0028F9D154
:107090002000FFF7C3FD0120F8BD70B50500FFF724
:1070A000D1FDFFF7B3FD04002800FF3CFFF7B6FD5C
:1070B000601E8441E0B270BD024B034A1A60002298
:1070C0009A807047A809002000093D00020010B511
:1070D000012104000C32406A00F046FD00280ED069
:1070E000236A002B06D1E368227A236280235B4265
:1070F0001343237220230120227A1343237210BDED
:1071000070B50400FFF7E2FF002801D1002070BD38
:10711000636AE2681D79961E1A7C96405A69B61811
:10712000AD19AE4206D0013D280000F063FC0028F6
:10713000F7D1EBE7636A01201A7C80239B00934020
:10714000E269D318E361E2E710B50400406900F09A
:107150002BFC002803D0207E014B4001C01810BD3D
:10716000B80900200A00F0B50B000E000500202130
:1071700087B00B32197001339342FBD107230027EC
:1071800001932C78002C27D02E2C07D1019B0A2BA1
:1071900010D00A23082701930135F2E71022124983
:1071A00002A808F08DFA02AB1A78002A04D0013345
:1071B0009442F9D1002014E0019BBB42FAD3230092
:1071C000213B5D2BF6D8403B192B01D8203CE4B283
:1071D0007B1CF455DFB2DFE730782038431E98413E
:1071E000C0B207B0F0BDC046804B010070B5427A16
:1071F00004000D00002A01D0002070BD4B1CDB7F75
:10720000102B0ED10E3B43724B8C02625B01C361AB
:107210000023012065622072E360236163612376AD
:10722000EBE7202BE8D102001D3B4372496A1C3278
:107230000162280000F030FC0028E9D1DCE7000002
:10724000F0B5437A85B004000E000392002B03D101
:107250000120404205B0F0BD037ADB07F8D5026992
:10726000C3699B1A039A9A4201D99BB20393039B69
:107270000293029B002B5AD02369627ADF05606A71
:10728000FF0D5D0A022A24D1406A80234019029D25
:107290009B00DB1B9D4200DD9DB24022237A1342FE
:1072A00003D180239B009D4203D1234B1B68834263
:1072B0002BD1002100F078FB0028C9D032001F4BF1
:1072C000DF197919B9422AD03B780137137001329E
:1072D000F8E70279013A1540EDB2002F05D1002DF3
:1072E00003D1002B09D1236AE360636AE268901E30
:1072F0001A7C5B699040C018C7E72200E1680C3235
:1073000000F098FB0028F0D1A2E701000C4800969D
:107310002B003A000068FFF74DFE002898D0236943
:1073200076195B192361029B5D1BABB2A0E76B462C
:107330000C20185E8EE7C0463C000020B8090020F3
:10734000BC0B002037B5437A05000020012B0BD978
:107350002B690122DC056B462800D91D240FFFF79D
:107360006FFF012801D000203EBD2B6960011F3353
:107370002B61014BC018F7E7B809002070B5437ABC
:1073800004000E00002B01D1002070BDC2698A42AA
:10739000FAD3022B02D101202661F6E7002901D1A0
:1073A000E160F8E7436A01691A7C751E09324B1ED9
:1073B000D340D540AB4201D800290DD1236AE36008
:1073C000002DE8D02200E168606A0C3200F032FB48
:1073D000013D0028F4D1D7E7ED1AF1E770B5437A03
:1073E00005000E00002B01D1002070BD037A7F2B19
:1073F0002CD90121FFF7A8FE041EF5D06B7A012BD2
:1074000007D8EB691A0A037742771A0C1B0E8277AA
:10741000C3772B6A9AB2A3761B0C23751B0A63757C
:107420000F4B120A1B68E276002B0BD021002000C4
:10743000163118309847637E227E1B021343A374D3
:107440001B0AE3747F222B7A13402B72002E03D188
:1074500010222B7A93432B72300000F07FFAC4E79E
:10746000B009002010B501210400FFF7B7FF002884
:1074700002D000230120637210BD0000F8B5437AEA
:107480000400012B01D00020F8BD037A9A07FAD539
:107490005B0713D4174B1868FFF7FFFD0028F2D1E4
:1074A000227A202715003D403A4210D001002000EA
:1074B000FFF794FF237ABB432372E4E7C1690369B2
:1074C0008B42E7D0FFF75AFF0028E3D1DBE70A4BF6
:1074D0001B68002B03D0280000F028FAD3E7102304
:1074E00020691343C0052372C30D80208000C01A99
:1074F00080B2C9E7BC0B0020B80B002073B50400B4
:10750000407A0D00012801D0002076BD237A9B0728
:10751000FAD5E3698B42F7D3002BF6D02000266919
:10752000FFF72CFF0028EFD0606A002D19D1216AE7
:1075300000F07CFB0028E7D025628023227A5B42A2
:10754000134301212000E5612372FFF747FF002864
:10755000DAD02900B54200D931002000FFF70EFF34
:10756000D3E7E16801AA00F065FA0028CCD0606A90
:107570000199431CDB7F103B5A425341094A5B424D
:107580001340094A9B189942D7D200F04FFB0028BC
:10759000BAD0064AE168606A00F0A4FA0028CCD1AB
:1075A000B2E7C046000001F0F8FFFF0FFFFFFF0F3A
:1075B0001C4B70B515004A01D31811220400D87A6B
:1075C000104204D03132154201D0002070BD164A5D
:1075D000217612686261998A5A8B090411432162EB
:1075E000D87A182206001640104210D1DB69E361F8
:1075F000012363720F2300212B4001202372E160DD
:1076000021616B06E2D52000FFF778FFDEE7102E40
:10761000DBD12200606A1C3200F03EFA0028D4D090
:107620000423E6E7B80900203C000020F0B505007F
:107630006C7A87B00E0010000093002C00D089E017
:1076400003A9FFF78FFD00286ED02700736A6B62D5
:10765000F46034613369F26993421CD20F225B09F2
:107660001A4030000192FFF76DFE011E5CD00378D6
:10767000002B05D0E52B4BD1002F03D00127E9E7E4
:10768000002F08D1019B2B76334B1B686B610B7865
:10769000002BF3D101271223009A1340122B43D160
:1076A000002F44D001212800FFF74EFD061E3BD0DD
:1076B00020220021300008F01FF80B22300003A91F
:1076C00007F0FEFF254B1B68002B3BD0310030003C
:1076D0000E3110309847737C327C1B021343DAB2B0
:1076E0001B0AF3747376F37BB2743276B27B1B029F
:1076F0001343B3751B0A0120F37500F02FF900281E
:1077000012D0297E009A2800FFF752FF04000BE0F8
:107710000B2203A807F0C6FF00289BD13023009A54
:1077200001991340302BEED1200007B0F0BD737AE1
:10773000022BF9D03000FFF7E3FC0028F4D0084E0C
:107740002F76B5E72122B37308233274073272749F
:10775000F373C0E70024E7E73C000020B0090020F5
:10776000B8090020F0B5437A87B004000F000292F8
:10777000012B30D1057AAB072DD56B0723D401231C
:107780002D09AB430393029B0093009A2369002ABF
:1077900000D195E0606A5D0A0279DB05013A154087
:1077A000DB0DEDB20193002D1AD1002B18D1E16849
:1077B000002948D1236A002B11D12000FFF786FC55
:1077C00000280DD107E0C16903699942D7D0FFF7BE
:1077D000D5FD0028D3D101230020636085E0E3605C
:1077E0008023019A9B009B1A6A461688009A9BB2D6
:1077F0009A4200D91E1C626AE368117C023B8B40EE
:107800005269B6B29B185D1980239B009E422FD10E
:107810003A4B1A68AA4202D1012252421A603848F1
:107820003A002900039B0068FFF7FBFB0028D2D039
:1078300080239B00FF18009B9B1B9BB20093236936
:107840009E192661A1E705AA00F0F4F800284CD0A3
:10785000636A059A0133DB7F103B59424B4129494A
:107860005B420B4028495B189A42A6D2E260B7E718
:10787000019B002B1BD12369E269934217D301209E
:1078800000F06CF80028A6D01C4B204A1D60012394
:1078900011780B4313703A001D4B01995B1898192E
:1078A00098420BD01178013219700133F8E70121A9
:1078B000280000F079F80028EDD18CE7BF19BAE76D
:1078C000E169227A994205D2E36180235B42134346
:1078D000237206E00F4B1B68002B02D0029B002B8B
:1078E000F3D1237A1B0702D4029807B0F0BD01211F
:1078F0002000FFF773FD0028F6D16CE73C00002064
:10790000BC0B0020000001F0F8FFFF0FB4090020BD
:10791000B8090020B009002007B56B46D9710733BC
:1079200001221900FFF71EFF0EBD000010B5084C24
:10793000030021680120002909D00648064A006892
:10794000FFF76FFB002802D000230120236010BD49
:10795000B80B0020BC0B0020B809002070B50E4DFC
:1079600004002B78002B01D101200AE003000B4911
:107970000B480C4A09680068FFF753FB002801D147
:10798000002070BD002CEFD02000FFF7CFFF0028B3
:10799000F6D000232B70E7E7B40900203C0000205C
:1079A000BC0B0020B809002070B50E4E05003368EE
:1079B0000C0083420FD00120FFF7D0FF002801D137
:1079C000002070BD084B2900084A1868FFF7FDFA2F
:1079D0000028F5D03560064B012019780C431C7047
:1079E000EFE7C0463C000020BC0B0020B809002097
:1079F000B409002070B504000120FFF7AFFF002894
:107A000010D0002380221800074D9200591901332D
:107A100008709342FAD10120044B054A1C60137888
:107A20000343137070BDC046B80900203C0000201D
:107A3000B4090020C36870B5013306000C001500BE
:107A40008B4201D2002070BD0136F27FC369C809A4
:107A5000102A00D1080AC0180D4B1B68834209D1B7
:107A6000F27F0C4B102A0BD1E4B264001B5B0120A7
:107A70002B60E8E70021FFF797FF0028F0D1E1E74E
:107A80007F210C40A4001B591B011B09EFE7C046D6
:107A90003C000020B8090020F7B58027040015003D
:107AA00000260191BF002000019901AAFFF7C2FF43
:107AB000002812D03A00237C9A40631CDB7FB61862
:107AC000103B5A425341054A5B421340044A9B18FB
:107AD000019A9A42E7D301202E60FEBD000001F01A
